{
  "contractName": "NugzNFTs",
  "abi": [
    {
      "inputs": [],
      "stateMutability": "nonpayable",
      "type": "constructor"
    },
    {
      "anonymous": false,
      "inputs": [
        {
          "indexed": true,
          "internalType": "address",
          "name": "owner",
          "type": "address"
        },
        {
          "indexed": true,
          "internalType": "address",
          "name": "approved",
          "type": "address"
        },
        {
          "indexed": true,
          "internalType": "uint256",
          "name": "tokenId",
          "type": "uint256"
        }
      ],
      "name": "Approval",
      "type": "event"
    },
    {
      "anonymous": false,
      "inputs": [
        {
          "indexed": true,
          "internalType": "address",
          "name": "owner",
          "type": "address"
        },
        {
          "indexed": true,
          "internalType": "address",
          "name": "operator",
          "type": "address"
        },
        {
          "indexed": false,
          "internalType": "bool",
          "name": "approved",
          "type": "bool"
        }
      ],
      "name": "ApprovalForAll",
      "type": "event"
    },
    {
      "anonymous": false,
      "inputs": [
        {
          "indexed": true,
          "internalType": "address",
          "name": "previousOwner",
          "type": "address"
        },
        {
          "indexed": true,
          "internalType": "address",
          "name": "newOwner",
          "type": "address"
        }
      ],
      "name": "OwnershipTransferred",
      "type": "event"
    },
    {
      "anonymous": false,
      "inputs": [
        {
          "indexed": true,
          "internalType": "address",
          "name": "from",
          "type": "address"
        },
        {
          "indexed": true,
          "internalType": "address",
          "name": "to",
          "type": "address"
        },
        {
          "indexed": true,
          "internalType": "uint256",
          "name": "tokenId",
          "type": "uint256"
        }
      ],
      "name": "Transfer",
      "type": "event"
    },
    {
      "inputs": [
        {
          "internalType": "address",
          "name": "to",
          "type": "address"
        },
        {
          "internalType": "uint256",
          "name": "tokenId",
          "type": "uint256"
        }
      ],
      "name": "approve",
      "outputs": [],
      "stateMutability": "nonpayable",
      "type": "function"
    },
    {
      "inputs": [
        {
          "internalType": "address",
          "name": "owner",
          "type": "address"
        }
      ],
      "name": "balanceOf",
      "outputs": [
        {
          "internalType": "uint256",
          "name": "",
          "type": "uint256"
        }
      ],
      "stateMutability": "view",
      "type": "function",
      "constant": true
    },
    {
      "inputs": [],
      "name": "baseExtension",
      "outputs": [
        {
          "internalType": "string",
          "name": "",
          "type": "string"
        }
      ],
      "stateMutability": "view",
      "type": "function",
      "constant": true
    },
    {
      "inputs": [],
      "name": "cost",
      "outputs": [
        {
          "internalType": "uint256",
          "name": "",
          "type": "uint256"
        }
      ],
      "stateMutability": "view",
      "type": "function",
      "constant": true
    },
    {
      "inputs": [
        {
          "internalType": "uint256",
          "name": "tokenId",
          "type": "uint256"
        }
      ],
      "name": "getApproved",
      "outputs": [
        {
          "internalType": "address",
          "name": "",
          "type": "address"
        }
      ],
      "stateMutability": "view",
      "type": "function",
      "constant": true
    },
    {
      "inputs": [
        {
          "internalType": "address",
          "name": "owner",
          "type": "address"
        },
        {
          "internalType": "address",
          "name": "operator",
          "type": "address"
        }
      ],
      "name": "isApprovedForAll",
      "outputs": [
        {
          "internalType": "bool",
          "name": "",
          "type": "bool"
        }
      ],
      "stateMutability": "view",
      "type": "function",
      "constant": true
    },
    {
      "inputs": [],
      "name": "maxMintAmount",
      "outputs": [
        {
          "internalType": "uint256",
          "name": "",
          "type": "uint256"
        }
      ],
      "stateMutability": "view",
      "type": "function",
      "constant": true
    },
    {
      "inputs": [],
      "name": "maxSupply",
      "outputs": [
        {
          "internalType": "uint256",
          "name": "",
          "type": "uint256"
        }
      ],
      "stateMutability": "view",
      "type": "function",
      "constant": true
    },
    {
      "inputs": [],
      "name": "name",
      "outputs": [
        {
          "internalType": "string",
          "name": "",
          "type": "string"
        }
      ],
      "stateMutability": "view",
      "type": "function",
      "constant": true
    },
    {
      "inputs": [],
      "name": "owner",
      "outputs": [
        {
          "internalType": "address",
          "name": "",
          "type": "address"
        }
      ],
      "stateMutability": "view",
      "type": "function",
      "constant": true
    },
    {
      "inputs": [
        {
          "internalType": "uint256",
          "name": "tokenId",
          "type": "uint256"
        }
      ],
      "name": "ownerOf",
      "outputs": [
        {
          "internalType": "address",
          "name": "",
          "type": "address"
        }
      ],
      "stateMutability": "view",
      "type": "function",
      "constant": true
    },
    {
      "inputs": [],
      "name": "paused",
      "outputs": [
        {
          "internalType": "bool",
          "name": "",
          "type": "bool"
        }
      ],
      "stateMutability": "view",
      "type": "function",
      "constant": true
    },
    {
      "inputs": [],
      "name": "preSaleActive",
      "outputs": [
        {
          "internalType": "bool",
          "name": "",
          "type": "bool"
        }
      ],
      "stateMutability": "view",
      "type": "function",
      "constant": true
    },
    {
      "inputs": [],
      "name": "preSaleCost",
      "outputs": [
        {
          "internalType": "uint256",
          "name": "",
          "type": "uint256"
        }
      ],
      "stateMutability": "view",
      "type": "function",
      "constant": true
    },
    {
      "inputs": [],
      "name": "renounceOwnership",
      "outputs": [],
      "stateMutability": "nonpayable",
      "type": "function"
    },
    {
      "inputs": [],
      "name": "revealed",
      "outputs": [
        {
          "internalType": "bool",
          "name": "",
          "type": "bool"
        }
      ],
      "stateMutability": "view",
      "type": "function",
      "constant": true
    },
    {
      "inputs": [
        {
          "internalType": "address",
          "name": "from",
          "type": "address"
        },
        {
          "internalType": "address",
          "name": "to",
          "type": "address"
        },
        {
          "internalType": "uint256",
          "name": "tokenId",
          "type": "uint256"
        }
      ],
      "name": "safeTransferFrom",
      "outputs": [],
      "stateMutability": "nonpayable",
      "type": "function"
    },
    {
      "inputs": [
        {
          "internalType": "address",
          "name": "from",
          "type": "address"
        },
        {
          "internalType": "address",
          "name": "to",
          "type": "address"
        },
        {
          "internalType": "uint256",
          "name": "tokenId",
          "type": "uint256"
        },
        {
          "internalType": "bytes",
          "name": "_data",
          "type": "bytes"
        }
      ],
      "name": "safeTransferFrom",
      "outputs": [],
      "stateMutability": "nonpayable",
      "type": "function"
    },
    {
      "inputs": [
        {
          "internalType": "address",
          "name": "operator",
          "type": "address"
        },
        {
          "internalType": "bool",
          "name": "approved",
          "type": "bool"
        }
      ],
      "name": "setApprovalForAll",
      "outputs": [],
      "stateMutability": "nonpayable",
      "type": "function"
    },
    {
      "inputs": [
        {
          "internalType": "bytes4",
          "name": "interfaceId",
          "type": "bytes4"
        }
      ],
      "name": "supportsInterface",
      "outputs": [
        {
          "internalType": "bool",
          "name": "",
          "type": "bool"
        }
      ],
      "stateMutability": "view",
      "type": "function",
      "constant": true
    },
    {
      "inputs": [],
      "name": "symbol",
      "outputs": [
        {
          "internalType": "string",
          "name": "",
          "type": "string"
        }
      ],
      "stateMutability": "view",
      "type": "function",
      "constant": true
    },
    {
      "inputs": [
        {
          "internalType": "uint256",
          "name": "index",
          "type": "uint256"
        }
      ],
      "name": "tokenByIndex",
      "outputs": [
        {
          "internalType": "uint256",
          "name": "",
          "type": "uint256"
        }
      ],
      "stateMutability": "view",
      "type": "function",
      "constant": true
    },
    {
      "inputs": [
        {
          "internalType": "address",
          "name": "owner",
          "type": "address"
        },
        {
          "internalType": "uint256",
          "name": "index",
          "type": "uint256"
        }
      ],
      "name": "tokenOfOwnerByIndex",
      "outputs": [
        {
          "internalType": "uint256",
          "name": "",
          "type": "uint256"
        }
      ],
      "stateMutability": "view",
      "type": "function",
      "constant": true
    },
    {
      "inputs": [],
      "name": "totalSupply",
      "outputs": [
        {
          "internalType": "uint256",
          "name": "",
          "type": "uint256"
        }
      ],
      "stateMutability": "view",
      "type": "function",
      "constant": true
    },
    {
      "inputs": [
        {
          "internalType": "address",
          "name": "from",
          "type": "address"
        },
        {
          "internalType": "address",
          "name": "to",
          "type": "address"
        },
        {
          "internalType": "uint256",
          "name": "tokenId",
          "type": "uint256"
        }
      ],
      "name": "transferFrom",
      "outputs": [],
      "stateMutability": "nonpayable",
      "type": "function"
    },
    {
      "inputs": [
        {
          "internalType": "address",
          "name": "newOwner",
          "type": "address"
        }
      ],
      "name": "transferOwnership",
      "outputs": [],
      "stateMutability": "nonpayable",
      "type": "function"
    },
    {
      "inputs": [
        {
          "internalType": "address",
          "name": "",
          "type": "address"
        }
      ],
      "name": "whitelist",
      "outputs": [
        {
          "internalType": "bool",
          "name": "",
          "type": "bool"
        }
      ],
      "stateMutability": "view",
      "type": "function",
      "constant": true
    },
    {
      "inputs": [
        {
          "internalType": "address",
          "name": "_to",
          "type": "address"
        },
        {
          "internalType": "uint256",
          "name": "_mintAmount",
          "type": "uint256"
        }
      ],
      "name": "mint",
      "outputs": [],
      "stateMutability": "payable",
      "type": "function",
      "payable": true
    },
    {
      "inputs": [
        {
          "internalType": "address",
          "name": "_owner",
          "type": "address"
        }
      ],
      "name": "walletOfOwner",
      "outputs": [
        {
          "internalType": "uint256[]",
          "name": "",
          "type": "uint256[]"
        }
      ],
      "stateMutability": "view",
      "type": "function",
      "constant": true
    },
    {
      "inputs": [
        {
          "internalType": "uint256",
          "name": "tokenId",
          "type": "uint256"
        }
      ],
      "name": "tokenURI",
      "outputs": [
        {
          "internalType": "string",
          "name": "",
          "type": "string"
        }
      ],
      "stateMutability": "view",
      "type": "function",
      "constant": true
    },
    {
      "inputs": [
        {
          "internalType": "uint256",
          "name": "_newCost",
          "type": "uint256"
        }
      ],
      "name": "setCost",
      "outputs": [],
      "stateMutability": "nonpayable",
      "type": "function"
    },
    {
      "inputs": [
        {
          "internalType": "uint256",
          "name": "_newCost",
          "type": "uint256"
        }
      ],
      "name": "setPresaleCost",
      "outputs": [],
      "stateMutability": "nonpayable",
      "type": "function"
    },
    {
      "inputs": [
        {
          "internalType": "uint256",
          "name": "_newmaxMintAmount",
          "type": "uint256"
        }
      ],
      "name": "setmaxMintAmount",
      "outputs": [],
      "stateMutability": "nonpayable",
      "type": "function"
    },
    {
      "inputs": [
        {
          "internalType": "string",
          "name": "_newBaseURI",
          "type": "string"
        }
      ],
      "name": "setBaseURI",
      "outputs": [],
      "stateMutability": "nonpayable",
      "type": "function"
    },
    {
      "inputs": [],
      "name": "reveal",
      "outputs": [],
      "stateMutability": "nonpayable",
      "type": "function"
    },
    {
      "inputs": [
        {
          "internalType": "string",
          "name": "_newBaseExtension",
          "type": "string"
        }
      ],
      "name": "setBaseExtension",
      "outputs": [],
      "stateMutability": "nonpayable",
      "type": "function"
    },
    {
      "inputs": [],
      "name": "pause",
      "outputs": [],
      "stateMutability": "nonpayable",
      "type": "function"
    },
    {
      "inputs": [],
      "name": "preSaleActivate",
      "outputs": [],
      "stateMutability": "nonpayable",
      "type": "function"
    },
    {
      "inputs": [
        {
          "internalType": "address[]",
          "name": "_user",
          "type": "address[]"
        }
      ],
      "name": "whitelistUser",
      "outputs": [],
      "stateMutability": "nonpayable",
      "type": "function"
    },
    {
      "inputs": [
        {
          "internalType": "address",
          "name": "_user",
          "type": "address"
        }
      ],
      "name": "removeWhitelistUser",
      "outputs": [],
      "stateMutability": "nonpayable",
      "type": "function"
    },
    {
      "inputs": [],
      "name": "withdraw",
      "outputs": [],
      "stateMutability": "payable",
      "type": "function",
      "payable": true
    },
    {
      "inputs": [],
      "name": "getBalance",
      "outputs": [
        {
          "internalType": "uint256",
          "name": "",
          "type": "uint256"
        }
      ],
      "stateMutability": "view",
      "type": "function",
      "constant": true
    }
  ],
  "bytecode": "0x60c06040526005608081905264173539b7b760d91b60a09081526200002891600c9190620001eb565b50600d805460ff1916905566d529ae9e860000600e55668e1bc9bf040000600f90815560105560056011556012805461ffff19166101001790553480156200006f57600080fd5b5060408051808201825260088152674e75677a4e46547360c01b6020808301918252835180850190945260048452631393919560e21b908401528151919291620000bc91600091620001eb565b508051620000d2906001906020840190620001eb565b505050620000ef620000e96200011e60201b60201c565b62000122565b6040805180820190915260078152667465737455524960c81b6020820152620001189062000174565b62000303565b3390565b600a80546001600160a01b038381166001600160a01b0319831681179093556040519116919082907f8be0079c531659141344cd1fd0a4f28419497f9722a3daafe3b4186f6b6457e090600090a35050565b6200017e6200011e565b6001600160a01b031662000191620001dc565b6001600160a01b031614620001c35760405162461bcd60e51b8152600401620001ba9062000291565b60405180910390fd5b8051620001d890600b906020840190620001eb565b5050565b600a546001600160a01b031690565b828054620001f990620002c6565b90600052602060002090601f0160209004810192826200021d576000855562000268565b82601f106200023857805160ff191683800117855562000268565b8280016001018555821562000268579182015b82811115620002685782518255916020019190600101906200024b565b50620002769291506200027a565b5090565b5b808211156200027657600081556001016200027b565b6020808252818101527f4f776e61626c653a2063616c6c6572206973206e6f7420746865206f776e6572604082015260600190565b600281046001821680620002db57607f821691505b60208210811415620002fd57634e487b7160e01b600052602260045260246000fd5b50919050565b612ae880620003136000396000f3fe6080604052600436106102515760003560e01c806370a0823111610139578063a22cb465116100b6578063cc9ff9c61161007a578063cc9ff9c614610663578063d5abeb0114610678578063da3ef23f1461068d578063e985e9c5146106ad578063ebae37d8146106cd578063f2fde38b146106e257610251565b8063a22cb465146105d9578063a475b5dd146105f9578063b88d4fde1461060e578063c66828621461062e578063c87b56dd1461064357610251565b80638da5cb5b116100fd5780638da5cb5b1461054f5780638fdcf9421461056457806395d89b41146105845780639b19251a146105995780639b6fbf8a146105b957610251565b806370a08231146104d0578063715018a6146104f05780637f00c7a61461050557806384494708146105255780638456cb591461053a57610251565b806330cc7ae0116101d257806344a0d68a1161019657806344a0d68a146104265780634f6ccce714610446578063518302271461046657806355f804b31461047b5780635c975abb1461049b5780636352211e146104b057610251565b806330cc7ae01461039e5780633ccfd60b146103be57806340c10f19146103c657806342842e0e146103d9578063438b6300146103f957610251565b806313faede61161021957806313faede61461031f57806318160ddd14610334578063239c70ae1461034957806323b872dd1461035e5780632f745c591461037e57610251565b806301ffc9a71461025657806306fdde031461028c578063081812fc146102ae578063095ea7b3146102db57806312065fe0146102fd575b600080fd5b34801561026257600080fd5b50610276610271366004612068565b610702565b6040516102839190612281565b60405180910390f35b34801561029857600080fd5b506102a161072f565b604051610283919061228c565b3480156102ba57600080fd5b506102ce6102c93660046120e6565b6107c1565b60405161028391906121ec565b3480156102e757600080fd5b506102fb6102f6366004611f91565b61080d565b005b34801561030957600080fd5b506103126108a5565b604051610283919061291c565b34801561032b57600080fd5b506103126108a9565b34801561034057600080fd5b506103126108af565b34801561035557600080fd5b506103126108b5565b34801561036a57600080fd5b506102fb610379366004611ea3565b6108bb565b34801561038a57600080fd5b50610312610399366004611f91565b6108f3565b3480156103aa57600080fd5b506102fb6103b9366004611e57565b610945565b6102fb6109a5565b6102fb6103d4366004611f91565b610a0a565b3480156103e557600080fd5b506102fb6103f4366004611ea3565b610bc0565b34801561040557600080fd5b50610419610414366004611e57565b610bdb565b604051610283919061223d565b34801561043257600080fd5b506102fb6104413660046120e6565b610c99565b34801561045257600080fd5b506103126104613660046120e6565b610cdd565b34801561047257600080fd5b50610276610d38565b34801561048757600080fd5b506102fb6104963660046120a0565b610d41565b3480156104a757600080fd5b50610276610d97565b3480156104bc57600080fd5b506102ce6104cb3660046120e6565b610da0565b3480156104dc57600080fd5b506103126104eb366004611e57565b610dd5565b3480156104fc57600080fd5b506102fb610e19565b34801561051157600080fd5b506102fb6105203660046120e6565b610e62565b34801561053157600080fd5b50610276610ea6565b34801561054657600080fd5b506102fb610eb4565b34801561055b57600080fd5b506102ce610f07565b34801561057057600080fd5b506102fb61057f3660046120e6565b610f16565b34801561059057600080fd5b506102a1610f5a565b3480156105a557600080fd5b506102766105b4366004611e57565b610f69565b3480156105c557600080fd5b506102fb6105d4366004611fba565b610f7e565b3480156105e557600080fd5b506102fb6105f4366004611f57565b611033565b34801561060557600080fd5b506102fb611045565b34801561061a57600080fd5b506102fb610629366004611ede565b611098565b34801561063a57600080fd5b506102a16110d7565b34801561064f57600080fd5b506102a161065e3660046120e6565b611165565b34801561066f57600080fd5b5061031261121f565b34801561068457600080fd5b50610312611225565b34801561069957600080fd5b506102fb6106a83660046120a0565b61122b565b3480156106b957600080fd5b506102766106c8366004611e71565b61127d565b3480156106d957600080fd5b506102fb6112ab565b3480156106ee57600080fd5b506102fb6106fd366004611e57565b611307565b60006001600160e01b0319821663780e9d6360e01b1480610727575061072782611378565b90505b919050565b60606000805461073e906129f0565b80601f016020809104026020016040519081016040528092919081815260200182805461076a906129f0565b80156107b75780601f1061078c576101008083540402835291602001916107b7565b820191906000526020600020905b81548152906001019060200180831161079a57829003601f168201915b5050505050905090565b60006107cc826113b8565b6107f15760405162461bcd60e51b81526004016107e890612699565b60405180910390fd5b506000908152600460205260409020546001600160a01b031690565b600061081882610da0565b9050806001600160a01b0316836001600160a01b0316141561084c5760405162461bcd60e51b81526004016107e8906127e0565b806001600160a01b031661085e6113d5565b6001600160a01b0316148061087a575061087a816106c86113d5565b6108965760405162461bcd60e51b81526004016107e89061253f565b6108a083836113d9565b505050565b4790565b600e5481565b60085490565b60115481565b6108cc6108c66113d5565b82611447565b6108e85760405162461bcd60e51b81526004016107e890612821565b6108a08383836114cc565b60006108fe83610dd5565b821061091c5760405162461bcd60e51b81526004016107e89061229f565b506001600160a01b03919091166000908152600660209081526040808320938352929052205490565b61094d6113d5565b6001600160a01b031661095e610f07565b6001600160a01b0316146109845760405162461bcd60e51b81526004016107e8906126e5565b6001600160a01b03166000908152601360205260409020805460ff19169055565b6109ad6113d5565b6001600160a01b03166109be610f07565b6001600160a01b0316146109e45760405162461bcd60e51b81526004016107e8906126e5565b60405133904780156108fc02916000818181858888f19350505050610a0857600080fd5b565b6000610a146108af565b60125490915060ff1615610a3a5760405162461bcd60e51b81526004016107e8906127b3565b60008211610a5a5760405162461bcd60e51b81526004016107e8906124b0565b601154821115610a7c5760405162461bcd60e51b81526004016107e8906128be565b601054610a898383612962565b1115610aa75760405162461bcd60e51b81526004016107e890612769565b610aaf610f07565b6001600160a01b0316336001600160a01b031614610b6b5760125460ff61010090910416151560011415610b3e573360009081526013602052604090205460ff16610b0c5760405162461bcd60e51b81526004016107e8906123fe565b81600f54610b1a919061298e565b341015610b395760405162461bcd60e51b81526004016107e89061262f565b610b6b565b81600e54610b4c919061298e565b341015610b6b5760405162461bcd60e51b81526004016107e89061262f565b60015b828111610b9a57610b8884610b838385612962565b6115ff565b80610b9281612a2b565b915050610b6e565b50601054610ba88383612962565b14156108a0576012805460ff19166001179055505050565b6108a083838360405180602001604052806000815250611098565b60606000610be883610dd5565b905060008167ffffffffffffffff811115610c1357634e487b7160e01b600052604160045260246000fd5b604051908082528060200260200182016040528015610c3c578160200160208202803683370190505b50905060005b82811015610c9157610c5485826108f3565b828281518110610c7457634e487b7160e01b600052603260045260246000fd5b602090810291909101015280610c8981612a2b565b915050610c42565b509392505050565b610ca16113d5565b6001600160a01b0316610cb2610f07565b6001600160a01b031614610cd85760405162461bcd60e51b81526004016107e8906126e5565b600e55565b6000610ce76108af565b8210610d055760405162461bcd60e51b81526004016107e890612872565b60088281548110610d2657634e487b7160e01b600052603260045260246000fd5b90600052602060002001549050919050565b600d5460ff1681565b610d496113d5565b6001600160a01b0316610d5a610f07565b6001600160a01b031614610d805760405162461bcd60e51b81526004016107e8906126e5565b8051610d9390600b906020840190611d4f565b5050565b60125460ff1681565b6000818152600260205260408120546001600160a01b0316806107275760405162461bcd60e51b81526004016107e8906125e6565b60006001600160a01b038216610dfd5760405162461bcd60e51b81526004016107e89061259c565b506001600160a01b031660009081526003602052604090205490565b610e216113d5565b6001600160a01b0316610e32610f07565b6001600160a01b031614610e585760405162461bcd60e51b81526004016107e8906126e5565b610a086000611619565b610e6a6113d5565b6001600160a01b0316610e7b610f07565b6001600160a01b031614610ea15760405162461bcd60e51b81526004016107e8906126e5565b601155565b601254610100900460ff1681565b610ebc6113d5565b6001600160a01b0316610ecd610f07565b6001600160a01b031614610ef35760405162461bcd60e51b81526004016107e8906126e5565b6012805460ff19811660ff90911615179055565b600a546001600160a01b031690565b610f1e6113d5565b6001600160a01b0316610f2f610f07565b6001600160a01b031614610f555760405162461bcd60e51b81526004016107e8906126e5565b600f55565b60606001805461073e906129f0565b60136020526000908152604090205460ff1681565b610f866113d5565b6001600160a01b0316610f97610f07565b6001600160a01b031614610fbd5760405162461bcd60e51b81526004016107e8906126e5565b60005b8151811015610d9357600160136000848481518110610fef57634e487b7160e01b600052603260045260246000fd5b6020908102919091018101516001600160a01b03168252810191909152604001600020805460ff19169115159190911790558061102b81612a2b565b915050610fc0565b610d9361103e6113d5565b838361166b565b61104d6113d5565b6001600160a01b031661105e610f07565b6001600160a01b0316146110845760405162461bcd60e51b81526004016107e8906126e5565b600d805460ff19811660ff90911615179055565b6110a96110a36113d5565b83611447565b6110c55760405162461bcd60e51b81526004016107e890612821565b6110d18484848461170e565b50505050565b600c80546110e4906129f0565b80601f0160208091040260200160405190810160405280929190818152602001828054611110906129f0565b801561115d5780601f106111325761010080835404028352916020019161115d565b820191906000526020600020905b81548152906001019060200180831161114057829003601f168201915b505050505081565b6060611170826113b8565b61118c5760405162461bcd60e51b81526004016107e89061271a565b600d5460ff166111c0575060408051808201909152600d81526c4e6f742052657665616c65642160981b602082015261072a565b60006111ca611741565b905060008151116111ea5760405180602001604052806000815250611218565b806111f484611750565b600c6040516020016112089392919061212a565b6040516020818303038152906040525b9392505050565b600f5481565b60105481565b6112336113d5565b6001600160a01b0316611244610f07565b6001600160a01b03161461126a5760405162461bcd60e51b81526004016107e8906126e5565b8051610d9390600c906020840190611d4f565b6001600160a01b03918216600090815260056020908152604080832093909416825291909152205460ff1690565b6112b36113d5565b6001600160a01b03166112c4610f07565b6001600160a01b0316146112ea5760405162461bcd60e51b81526004016107e8906126e5565b6012805461ff001981166101009182900460ff1615909102179055565b61130f6113d5565b6001600160a01b0316611320610f07565b6001600160a01b0316146113465760405162461bcd60e51b81526004016107e8906126e5565b6001600160a01b03811661136c5760405162461bcd60e51b81526004016107e89061233c565b61137581611619565b50565b60006001600160e01b031982166380ac58cd60e01b14806113a957506001600160e01b03198216635b5e139f60e01b145b8061072757506107278261186b565b6000908152600260205260409020546001600160a01b0316151590565b3390565b600081815260046020526040902080546001600160a01b0319166001600160a01b038416908117909155819061140e82610da0565b6001600160a01b03167f8c5be1e5ebec7d5bd14f71427d1e84f3dd0314c0f7b2291e5b200ac8c7c3b92560405160405180910390a45050565b6000611452826113b8565b61146e5760405162461bcd60e51b81526004016107e8906124f3565b600061147983610da0565b9050806001600160a01b0316846001600160a01b031614806114b45750836001600160a01b03166114a9846107c1565b6001600160a01b0316145b806114c457506114c4818561127d565b949350505050565b826001600160a01b03166114df82610da0565b6001600160a01b0316146115055760405162461bcd60e51b81526004016107e890612382565b6001600160a01b03821661152b5760405162461bcd60e51b81526004016107e890612435565b611536838383611884565b6115416000826113d9565b6001600160a01b038316600090815260036020526040812080546001929061156a9084906129ad565b90915550506001600160a01b0382166000908152600360205260408120805460019290611598908490612962565b909155505060008181526002602052604080822080546001600160a01b0319166001600160a01b0386811691821790925591518493918716917fddf252ad1be2c89b69c2b068fc378daa952ba7f163c4a11628f55a4df523b3ef91a46108a08383836108a0565b610d9382826040518060200160405280600081525061190d565b600a80546001600160a01b038381166001600160a01b0319831681179093556040519116919082907f8be0079c531659141344cd1fd0a4f28419497f9722a3daafe3b4186f6b6457e090600090a35050565b816001600160a01b0316836001600160a01b0316141561169d5760405162461bcd60e51b81526004016107e890612479565b6001600160a01b0383811660008181526005602090815260408083209487168084529490915290819020805460ff1916851515179055517f17307eab39ab6107e8899845ad3d59bd9653f200f220920489ca2b5937696c3190611701908590612281565b60405180910390a3505050565b6117198484846114cc565b61172584848484611940565b6110d15760405162461bcd60e51b81526004016107e8906122ea565b6060600b805461073e906129f0565b60608161177557506040805180820190915260018152600360fc1b602082015261072a565b8160005b811561179f578061178981612a2b565b91506117989050600a8361297a565b9150611779565b60008167ffffffffffffffff8111156117c857634e487b7160e01b600052604160045260246000fd5b6040519080825280601f01601f1916602001820160405280156117f2576020820181803683370190505b5090505b84156114c4576118076001836129ad565b9150611814600a86612a46565b61181f906030612962565b60f81b81838151811061184257634e487b7160e01b600052603260045260246000fd5b60200101906001600160f81b031916908160001a905350611864600a8661297a565b94506117f6565b6001600160e01b031981166301ffc9a760e01b14919050565b61188f8383836108a0565b6001600160a01b0383166118ab576118a681611a5b565b6118ce565b816001600160a01b0316836001600160a01b0316146118ce576118ce8382611a9f565b6001600160a01b0382166118ea576118e581611b3c565b6108a0565b826001600160a01b0316826001600160a01b0316146108a0576108a08282611c15565b6119178383611c59565b6119246000848484611940565b6108a05760405162461bcd60e51b81526004016107e8906122ea565b6000611954846001600160a01b0316611d40565b15611a5057836001600160a01b031663150b7a026119706113d5565b8786866040518563ffffffff1660e01b81526004016119929493929190612200565b602060405180830381600087803b1580156119ac57600080fd5b505af19250505080156119dc575060408051601f3d908101601f191682019092526119d991810190612084565b60015b611a36573d808015611a0a576040519150601f19603f3d011682016040523d82523d6000602084013e611a0f565b606091505b508051611a2e5760405162461bcd60e51b81526004016107e8906122ea565b805181602001fd5b6001600160e01b031916630a85bd0160e11b1490506114c4565b506001949350505050565b600880546000838152600960205260408120829055600182018355919091527ff3f7a9fe364faab93b216da50a3214154f22a0a2b415b23a84c8169e8b636ee30155565b60006001611aac84610dd5565b611ab691906129ad565b600083815260076020526040902054909150808214611b09576001600160a01b03841660009081526006602090815260408083208584528252808320548484528184208190558352600790915290208190555b5060009182526007602090815260408084208490556001600160a01b039094168352600681528383209183525290812055565b600854600090611b4e906001906129ad565b60008381526009602052604081205460088054939450909284908110611b8457634e487b7160e01b600052603260045260246000fd5b906000526020600020015490508060088381548110611bb357634e487b7160e01b600052603260045260246000fd5b6000918252602080832090910192909255828152600990915260408082208490558582528120556008805480611bf957634e487b7160e01b600052603160045260246000fd5b6001900381819060005260206000200160009055905550505050565b6000611c2083610dd5565b6001600160a01b039093166000908152600660209081526040808320868452825280832085905593825260079052919091209190915550565b6001600160a01b038216611c7f5760405162461bcd60e51b81526004016107e890612664565b611c88816113b8565b15611ca55760405162461bcd60e51b81526004016107e8906123c7565b611cb160008383611884565b6001600160a01b0382166000908152600360205260408120805460019290611cda908490612962565b909155505060008181526002602052604080822080546001600160a01b0319166001600160a01b03861690811790915590518392907fddf252ad1be2c89b69c2b068fc378daa952ba7f163c4a11628f55a4df523b3ef908290a4610d93600083836108a0565b6001600160a01b03163b151590565b828054611d5b906129f0565b90600052602060002090601f016020900481019282611d7d5760008555611dc3565b82601f10611d9657805160ff1916838001178555611dc3565b82800160010185558215611dc3579182015b82811115611dc3578251825591602001919060010190611da8565b50611dcf929150611dd3565b5090565b5b80821115611dcf5760008155600101611dd4565b600067ffffffffffffffff831115611e0257611e02612a86565b611e15601f8401601f1916602001612925565b9050828152838383011115611e2957600080fd5b828260208301376000602084830101529392505050565b80356001600160a01b038116811461072a57600080fd5b600060208284031215611e68578081fd5b61121882611e40565b60008060408385031215611e83578081fd5b611e8c83611e40565b9150611e9a60208401611e40565b90509250929050565b600080600060608486031215611eb7578081fd5b611ec084611e40565b9250611ece60208501611e40565b9150604084013590509250925092565b60008060008060808587031215611ef3578081fd5b611efc85611e40565b9350611f0a60208601611e40565b925060408501359150606085013567ffffffffffffffff811115611f2c578182fd5b8501601f81018713611f3c578182fd5b611f4b87823560208401611de8565b91505092959194509250565b60008060408385031215611f69578182fd5b611f7283611e40565b915060208301358015158114611f86578182fd5b809150509250929050565b60008060408385031215611fa3578182fd5b611fac83611e40565b946020939093013593505050565b60006020808385031215611fcc578182fd5b823567ffffffffffffffff80821115611fe3578384fd5b818501915085601f830112611ff6578384fd5b81358181111561200857612008612a86565b8381029150612018848301612925565b8181528481019084860184860187018a1015612032578788fd5b8795505b8386101561205b5761204781611e40565b835260019590950194918601918601612036565b5098975050505050505050565b600060208284031215612079578081fd5b813561121881612a9c565b600060208284031215612095578081fd5b815161121881612a9c565b6000602082840312156120b1578081fd5b813567ffffffffffffffff8111156120c7578182fd5b8201601f810184136120d7578182fd5b6114c484823560208401611de8565b6000602082840312156120f7578081fd5b5035919050565b600081518084526121168160208601602086016129c4565b601f01601f19169290920160200192915050565b60008451602061213d8285838a016129c4565b8551918401916121508184848a016129c4565b855492019183906002810460018083168061216c57607f831692505b85831081141561218a57634e487b7160e01b88526022600452602488fd5b80801561219e57600181146121af576121db565b60ff198516885283880195506121db565b6121b88b612956565b895b858110156121d35781548a8201529084019088016121ba565b505083880195505b50939b9a5050505050505050505050565b6001600160a01b0391909116815260200190565b6001600160a01b0385811682528416602082015260408101839052608060608201819052600090612233908301846120fe565b9695505050505050565b6020808252825182820181905260009190848201906040850190845b8181101561227557835183529284019291840191600101612259565b50909695505050505050565b901515815260200190565b60006020825261121860208301846120fe565b6020808252602b908201527f455243373231456e756d657261626c653a206f776e657220696e646578206f7560408201526a74206f6620626f756e647360a81b606082015260800190565b60208082526032908201527f4552433732313a207472616e7366657220746f206e6f6e20455243373231526560408201527131b2b4bb32b91034b6b83632b6b2b73a32b960711b606082015260800190565b60208082526026908201527f4f776e61626c653a206e6577206f776e657220697320746865207a65726f206160408201526564647265737360d01b606082015260800190565b60208082526025908201527f4552433732313a207472616e736665722066726f6d20696e636f72726563742060408201526437bbb732b960d91b606082015260800190565b6020808252601c908201527f4552433732313a20746f6b656e20616c7265616479206d696e74656400000000604082015260600190565b60208082526018908201527f596f7520617265206e6f742077686974656c6973746564210000000000000000604082015260600190565b60208082526024908201527f4552433732313a207472616e7366657220746f20746865207a65726f206164646040820152637265737360e01b606082015260800190565b60208082526019908201527f4552433732313a20617070726f766520746f2063616c6c657200000000000000604082015260600190565b60208082526023908201527f4d696e7420616d6f756e74206d757374206265206d6f7265207468616e207a65604082015262726f2160e81b606082015260800190565b6020808252602c908201527f4552433732313a206f70657261746f7220717565727920666f72206e6f6e657860408201526b34b9ba32b73a103a37b5b2b760a11b606082015260800190565b60208082526038908201527f4552433732313a20617070726f76652063616c6c6572206973206e6f74206f7760408201527f6e6572206e6f7220617070726f76656420666f7220616c6c0000000000000000606082015260800190565b6020808252602a908201527f4552433732313a2062616c616e636520717565727920666f7220746865207a65604082015269726f206164647265737360b01b606082015260800190565b60208082526029908201527f4552433732313a206f776e657220717565727920666f72206e6f6e657869737460408201526832b73a103a37b5b2b760b91b606082015260800190565b6020808252818101527f45746865722076616c75652073656e74206973206e6f7420636f727265637421604082015260600190565b6020808252818101527f4552433732313a206d696e7420746f20746865207a65726f2061646472657373604082015260600190565b6020808252602c908201527f4552433732313a20617070726f76656420717565727920666f72206e6f6e657860408201526b34b9ba32b73a103a37b5b2b760a11b606082015260800190565b6020808252818101527f4f776e61626c653a2063616c6c6572206973206e6f7420746865206f776e6572604082015260600190565b6020808252602f908201527f4552433732314d657461646174613a2055524920717565727920666f72206e6f60408201526e3732bc34b9ba32b73a103a37b5b2b760891b606082015260800190565b6020808252602a908201527f45786365656473206d6178696d756d20737570706c792c20636865636b20796f604082015269757220616d6f756e742160b01b606082015260800190565b60208082526013908201527253616c65206973206e6f74206163746976652160681b604082015260600190565b60208082526021908201527f4552433732313a20617070726f76616c20746f2063757272656e74206f776e656040820152603960f91b606082015260800190565b60208082526031908201527f4552433732313a207472616e736665722063616c6c6572206973206e6f74206f6040820152701ddb995c881b9bdc88185c1c1c9bdd9959607a1b606082015260800190565b6020808252602c908201527f455243373231456e756d657261626c653a20676c6f62616c20696e646578206f60408201526b7574206f6620626f756e647360a01b606082015260800190565b602080825260409082018190527f45786365656473206d6178696d756d20746f6b656e7320796f752063616e2070908201527f7572636861736520696e20612073696e676c65207472616e73616374696f6e21606082015260800190565b90815260200190565b604051601f8201601f1916810167ffffffffffffffff8111828210171561294e5761294e612a86565b604052919050565b60009081526020902090565b6000821982111561297557612975612a5a565b500190565b60008261298957612989612a70565b500490565b60008160001904831182151516156129a8576129a8612a5a565b500290565b6000828210156129bf576129bf612a5a565b500390565b60005b838110156129df5781810151838201526020016129c7565b838111156110d15750506000910152565b600281046001821680612a0457607f821691505b60208210811415612a2557634e487b7160e01b600052602260045260246000fd5b50919050565b6000600019821415612a3f57612a3f612a5a565b5060010190565b600082612a5557612a55612a70565b500690565b634e487b7160e01b600052601160045260246000fd5b634e487b7160e01b600052601260045260246000fd5b634e487b7160e01b600052604160045260246000fd5b6001600160e01b03198116811461137557600080fdfea2646970667358221220b935042f649e7d415d094cc3d70bdc978ca9cedecb4f591b9955fa768a17525064736f6c63430008010033",
  "immutableReferences": {},
  "source": "// SPDX-License-Identifier: GPL-3.0\r\n\r\npragma solidity ^0.8.0;\r\n\r\nimport \"@openzeppelin/contracts/token/ERC721/extensions/ERC721Enumerable.sol\";\r\nimport \"@openzeppelin/contracts/access/Ownable.sol\";\r\n\r\ncontract NugzNFTs is ERC721Enumerable, Ownable {\r\n  using Strings for uint256;\r\n  \r\n  string baseURI;\r\n  string public baseExtension = \".json\";\r\n  bool public revealed = false;\r\n\r\n  uint256 public cost = 0.06 ether;\r\n  uint256 public preSaleCost = 0.04 ether;\r\n\r\n  uint256 public maxSupply = 15;\r\n  uint256 public maxMintAmount = 5;\r\n\r\n  bool public paused = false;\r\n\r\n  bool public preSaleActive = true;\r\n  mapping(address => bool) public whitelist;\r\n\r\n  constructor() ERC721(\"NugzNFTs\",\"NNFT\") {\r\n    setBaseURI(\"testURI\");\r\n  }\r\n\r\n  // internal\r\n  function _baseURI() internal view virtual override returns (string memory) {\r\n    return baseURI;\r\n  }\r\n\r\n  // public\r\n  function mint(address _to, uint256 _mintAmount) public payable {\r\n    uint256 supply = totalSupply();\r\n    require(!paused, \"Sale is not active!\");\r\n    require(_mintAmount > 0,\"Mint amount must be more than zero!\");\r\n    require(_mintAmount <= maxMintAmount, \"Exceeds maximum tokens you can purchase in a single transaction!\");\r\n    require(supply + _mintAmount <= maxSupply, \"Exceeds maximum supply, check your amount!\");\r\n\r\n    if (msg.sender != owner()) {\r\n        if(preSaleActive == true){\r\n            require(whitelist[msg.sender], \"You are not whitelisted!\");\r\n            require(msg.value >= preSaleCost * _mintAmount, \"Ether value sent is not correct!\");//error-dei\r\n        }\r\n        else{\r\n            require(msg.value >= cost * _mintAmount, \"Ether value sent is not correct!\");\r\n        }\r\n    }\r\n\r\n    for (uint256 i = 1; i <= _mintAmount; i++) {\r\n      _safeMint(_to, supply + i);\r\n    }\r\n\r\n    if(supply + _mintAmount == maxSupply){\r\n      paused = true;\r\n    }\r\n  }\r\n\r\n  function walletOfOwner(address _owner)\r\n    public\r\n    view\r\n    returns (uint256[] memory)\r\n  {\r\n    uint256 ownerTokenCount = balanceOf(_owner);\r\n    uint256[] memory tokenIds = new uint256[](ownerTokenCount);\r\n    for (uint256 i; i < ownerTokenCount; i++) {\r\n      tokenIds[i] = tokenOfOwnerByIndex(_owner, i);\r\n    }\r\n    return tokenIds;\r\n  }\r\n\r\n  function tokenURI(uint256 tokenId)\r\n    public\r\n    view\r\n    virtual\r\n    override\r\n    returns (string memory)\r\n  {\r\n    require(\r\n      _exists(tokenId),\r\n      \"ERC721Metadata: URI query for nonexistent token\"\r\n    );\r\n\r\n    if(revealed == false){\r\n      return \"Not Revealed!\";\r\n    }\r\n\r\n    string memory currentBaseURI = _baseURI();\r\n    return bytes(currentBaseURI).length > 0\r\n        ? string(abi.encodePacked(currentBaseURI, tokenId.toString(), baseExtension))\r\n        : \"\";\r\n  }\r\n\r\n  //only owner\r\n  function setCost(uint256 _newCost) public onlyOwner() {\r\n    cost = _newCost;\r\n  }\r\n\r\n  function setPresaleCost(uint256 _newCost) public onlyOwner() {\r\n    preSaleCost = _newCost;\r\n  }\r\n\r\n  function setmaxMintAmount(uint256 _newmaxMintAmount) public onlyOwner() {\r\n    maxMintAmount = _newmaxMintAmount;\r\n  }\r\n\r\n  function setBaseURI(string memory _newBaseURI) public onlyOwner {\r\n    baseURI = _newBaseURI;\r\n  }\r\n\r\n  function reveal() public onlyOwner{\r\n    revealed = !revealed;\r\n  }\r\n\r\n  function setBaseExtension(string memory _newBaseExtension) public onlyOwner {\r\n    baseExtension = _newBaseExtension;\r\n  }\r\n\r\n  function pause() public onlyOwner {\r\n    paused = !paused;\r\n  }\r\n\r\n  function preSaleActivate() public onlyOwner {\r\n    preSaleActive = !preSaleActive;\r\n  }  \r\n \r\n  function whitelistUser(address[] memory _user) public onlyOwner {\r\n    for(uint256 i=0; i<_user.length; i++)\r\n      whitelist[_user[i]] = true;\r\n  } \r\n \r\n  function removeWhitelistUser(address _user) public onlyOwner {\r\n    whitelist[_user] = false;\r\n  }\r\n\r\n  function withdraw() public payable onlyOwner {\r\n    require(payable(msg.sender).send(address(this).balance));\r\n  }\r\n\r\n  function getBalance() public view returns(uint) {\r\n    return address(this).balance;\r\n  }\r\n}",
  "sourcePath": "D:\\NFT_PROJECTS\\newProject\\frontend\\contracts\\NugzNFTs.sol",
  "compiler": {
    "name": "solc",
    "version": "0.8.1+commit.df193b15.Emscripten.clang"
  },
  "schemaVersion": "3.4.5",
  "updatedAt": "2022-03-23T12:46:48.808Z",
  "networkType": "ethereum",
  "devdoc": {
    "kind": "dev",
    "methods": {
      "approve(address,uint256)": {
        "details": "See {IERC721-approve}."
      },
      "balanceOf(address)": {
        "details": "See {IERC721-balanceOf}."
      },
      "getApproved(uint256)": {
        "details": "See {IERC721-getApproved}."
      },
      "isApprovedForAll(address,address)": {
        "details": "See {IERC721-isApprovedForAll}."
      },
      "name()": {
        "details": "See {IERC721Metadata-name}."
      },
      "owner()": {
        "details": "Returns the address of the current owner."
      },
      "ownerOf(uint256)": {
        "details": "See {IERC721-ownerOf}."
      },
      "renounceOwnership()": {
        "details": "Leaves the contract without owner. It will not be possible to call `onlyOwner` functions anymore. Can only be called by the current owner. NOTE: Renouncing ownership will leave the contract without an owner, thereby removing any functionality that is only available to the owner."
      },
      "safeTransferFrom(address,address,uint256)": {
        "details": "See {IERC721-safeTransferFrom}."
      },
      "safeTransferFrom(address,address,uint256,bytes)": {
        "details": "See {IERC721-safeTransferFrom}."
      },
      "setApprovalForAll(address,bool)": {
        "details": "See {IERC721-setApprovalForAll}."
      },
      "supportsInterface(bytes4)": {
        "details": "See {IERC165-supportsInterface}."
      },
      "symbol()": {
        "details": "See {IERC721Metadata-symbol}."
      },
      "tokenByIndex(uint256)": {
        "details": "See {IERC721Enumerable-tokenByIndex}."
      },
      "tokenOfOwnerByIndex(address,uint256)": {
        "details": "See {IERC721Enumerable-tokenOfOwnerByIndex}."
      },
      "tokenURI(uint256)": {
        "details": "See {IERC721Metadata-tokenURI}."
      },
      "totalSupply()": {
        "details": "See {IERC721Enumerable-totalSupply}."
      },
      "transferFrom(address,address,uint256)": {
        "details": "See {IERC721-transferFrom}."
      },
      "transferOwnership(address)": {
        "details": "Transfers ownership of the contract to a new account (`newOwner`). Can only be called by the current owner."
      }
    },
    "version": 1
  },
  "userdoc": {
    "kind": "user",
    "methods": {},
    "version": 1
  }
}