{
  "contractName": "SmartContract",
  "abi": [
    {
      "anonymous": false,
      "inputs": [
        {
          "indexed": true,
          "internalType": "address",
          "name": "previousOwner",
          "type": "address"
        },
        {
          "indexed": true,
          "internalType": "address",
          "name": "newOwner",
          "type": "address"
        }
      ],
      "name": "OwnershipTransferred",
      "type": "event"
    },
    {
      "inputs": [
        {
          "internalType": "uint256",
          "name": "",
          "type": "uint256"
        }
      ],
      "name": "Users",
      "outputs": [
        {
          "internalType": "address",
          "name": "uWallet",
          "type": "address"
        },
        {
          "internalType": "uint256",
          "name": "uHintCount",
          "type": "uint256"
        },
        {
          "internalType": "uint256",
          "name": "uAnswerCount",
          "type": "uint256"
        },
        {
          "internalType": "bool",
          "name": "isJoined",
          "type": "bool"
        }
      ],
      "stateMutability": "view",
      "type": "function",
      "constant": true
    },
    {
      "inputs": [
        {
          "internalType": "uint256",
          "name": "",
          "type": "uint256"
        }
      ],
      "name": "Winners",
      "outputs": [
        {
          "internalType": "address",
          "name": "",
          "type": "address"
        }
      ],
      "stateMutability": "view",
      "type": "function",
      "constant": true
    },
    {
      "inputs": [],
      "name": "challengeAnswerCount",
      "outputs": [
        {
          "internalType": "uint256",
          "name": "",
          "type": "uint256"
        }
      ],
      "stateMutability": "view",
      "type": "function",
      "constant": true
    },
    {
      "inputs": [],
      "name": "challengeCost",
      "outputs": [
        {
          "internalType": "uint256",
          "name": "",
          "type": "uint256"
        }
      ],
      "stateMutability": "view",
      "type": "function",
      "constant": true
    },
    {
      "inputs": [],
      "name": "challengePrize",
      "outputs": [
        {
          "internalType": "uint256",
          "name": "",
          "type": "uint256"
        }
      ],
      "stateMutability": "view",
      "type": "function",
      "constant": true
    },
    {
      "inputs": [],
      "name": "newQuestion",
      "outputs": [
        {
          "internalType": "string",
          "name": "qDesc",
          "type": "string"
        },
        {
          "internalType": "uint256",
          "name": "qPrize",
          "type": "uint256"
        },
        {
          "internalType": "uint256",
          "name": "qDate",
          "type": "uint256"
        },
        {
          "internalType": "string",
          "name": "qAnswer",
          "type": "string"
        },
        {
          "internalType": "bool",
          "name": "qState",
          "type": "bool"
        },
        {
          "internalType": "bool",
          "name": "qWait",
          "type": "bool"
        }
      ],
      "stateMutability": "view",
      "type": "function",
      "constant": true
    },
    {
      "inputs": [],
      "name": "owner",
      "outputs": [
        {
          "internalType": "address",
          "name": "",
          "type": "address"
        }
      ],
      "stateMutability": "view",
      "type": "function",
      "constant": true
    },
    {
      "inputs": [],
      "name": "renounceOwnership",
      "outputs": [],
      "stateMutability": "nonpayable",
      "type": "function"
    },
    {
      "inputs": [
        {
          "internalType": "address",
          "name": "newOwner",
          "type": "address"
        }
      ],
      "name": "transferOwnership",
      "outputs": [],
      "stateMutability": "nonpayable",
      "type": "function"
    },
    {
      "inputs": [],
      "name": "waitUserCount",
      "outputs": [
        {
          "internalType": "uint256",
          "name": "",
          "type": "uint256"
        }
      ],
      "stateMutability": "view",
      "type": "function",
      "constant": true
    },
    {
      "inputs": [
        {
          "internalType": "string",
          "name": "_desc",
          "type": "string"
        },
        {
          "internalType": "uint256",
          "name": "_date",
          "type": "uint256"
        },
        {
          "internalType": "string[3]",
          "name": "_hints",
          "type": "string[3]"
        },
        {
          "internalType": "string",
          "name": "_answer",
          "type": "string"
        }
      ],
      "name": "createQuestion",
      "outputs": [],
      "stateMutability": "nonpayable",
      "type": "function"
    },
    {
      "inputs": [],
      "name": "getQuestion",
      "outputs": [
        {
          "components": [
            {
              "internalType": "string",
              "name": "qDesc",
              "type": "string"
            },
            {
              "internalType": "uint256",
              "name": "qPrize",
              "type": "uint256"
            },
            {
              "internalType": "uint256",
              "name": "qDate",
              "type": "uint256"
            },
            {
              "internalType": "string[3]",
              "name": "qHints",
              "type": "string[3]"
            },
            {
              "internalType": "string",
              "name": "qAnswer",
              "type": "string"
            },
            {
              "internalType": "bool",
              "name": "qState",
              "type": "bool"
            },
            {
              "internalType": "bool",
              "name": "qWait",
              "type": "bool"
            }
          ],
          "internalType": "struct Question",
          "name": "",
          "type": "tuple"
        }
      ],
      "stateMutability": "view",
      "type": "function",
      "constant": true
    },
    {
      "inputs": [],
      "name": "getUsers",
      "outputs": [
        {
          "components": [
            {
              "internalType": "address",
              "name": "uWallet",
              "type": "address"
            },
            {
              "internalType": "uint256",
              "name": "uHintCount",
              "type": "uint256"
            },
            {
              "internalType": "uint256",
              "name": "uAnswerCount",
              "type": "uint256"
            },
            {
              "internalType": "bool",
              "name": "isJoined",
              "type": "bool"
            }
          ],
          "internalType": "struct User[]",
          "name": "",
          "type": "tuple[]"
        }
      ],
      "stateMutability": "view",
      "type": "function",
      "constant": true
    },
    {
      "inputs": [],
      "name": "getWinners",
      "outputs": [
        {
          "internalType": "address[]",
          "name": "",
          "type": "address[]"
        }
      ],
      "stateMutability": "view",
      "type": "function",
      "constant": true
    },
    {
      "inputs": [],
      "name": "clearUsers",
      "outputs": [],
      "stateMutability": "nonpayable",
      "type": "function"
    },
    {
      "inputs": [],
      "name": "joinChallenge",
      "outputs": [],
      "stateMutability": "payable",
      "type": "function",
      "payable": true
    },
    {
      "inputs": [
        {
          "internalType": "string",
          "name": "_answer",
          "type": "string"
        }
      ],
      "name": "checkAnswer",
      "outputs": [
        {
          "internalType": "bool",
          "name": "",
          "type": "bool"
        }
      ],
      "stateMutability": "payable",
      "type": "function",
      "payable": true
    },
    {
      "inputs": [
        {
          "internalType": "address",
          "name": "_userAddress",
          "type": "address"
        }
      ],
      "name": "checkParticipant",
      "outputs": [
        {
          "components": [
            {
              "internalType": "address",
              "name": "uWallet",
              "type": "address"
            },
            {
              "internalType": "uint256",
              "name": "uHintCount",
              "type": "uint256"
            },
            {
              "internalType": "uint256",
              "name": "uAnswerCount",
              "type": "uint256"
            },
            {
              "internalType": "bool",
              "name": "isJoined",
              "type": "bool"
            }
          ],
          "internalType": "struct User",
          "name": "",
          "type": "tuple"
        }
      ],
      "stateMutability": "view",
      "type": "function",
      "constant": true
    },
    {
      "inputs": [
        {
          "internalType": "address",
          "name": "_userAddress",
          "type": "address"
        }
      ],
      "name": "isUserJoined",
      "outputs": [
        {
          "internalType": "bool",
          "name": "",
          "type": "bool"
        }
      ],
      "stateMutability": "view",
      "type": "function",
      "constant": true
    },
    {
      "inputs": [
        {
          "internalType": "uint256",
          "name": "_amount",
          "type": "uint256"
        }
      ],
      "name": "withdraw",
      "outputs": [],
      "stateMutability": "nonpayable",
      "type": "function"
    },
    {
      "inputs": [],
      "name": "changeStartedState",
      "outputs": [],
      "stateMutability": "nonpayable",
      "type": "function"
    },
    {
      "inputs": [],
      "name": "changeWaitingState",
      "outputs": [],
      "stateMutability": "nonpayable",
      "type": "function"
    },
    {
      "inputs": [
        {
          "internalType": "uint256",
          "name": "_newCost",
          "type": "uint256"
        }
      ],
      "name": "setChallengeCost",
      "outputs": [],
      "stateMutability": "nonpayable",
      "type": "function"
    },
    {
      "inputs": [
        {
          "internalType": "uint256",
          "name": "_newCount",
          "type": "uint256"
        }
      ],
      "name": "setAnswerCount",
      "outputs": [],
      "stateMutability": "nonpayable",
      "type": "function"
    },
    {
      "inputs": [
        {
          "internalType": "uint256",
          "name": "_newCount",
          "type": "uint256"
        }
      ],
      "name": "setWaitUserCount",
      "outputs": [],
      "stateMutability": "nonpayable",
      "type": "function"
    }
  ],
  "bytecode": "0x6080604052655af3107a400060015565b5e620f480006002556002600355600260045534801561002e57600080fd5b5061003f61003a610044565b610048565b610098565b3390565b600080546001600160a01b038381166001600160a01b0319831681178455604051919092169283917f8be0079c531659141344cd1fd0a4f28419497f9722a3daafe3b4186f6b6457e09190a35050565b611e59806100a76000396000f3fe6080604052600436106101655760003560e01c8063960b278a116100d1578063df15c37e1161008a578063eda1970b11610064578063eda1970b146103e7578063eff38f92146103fc578063f256503f1461041e578063f2fde38b1461043e57610165565b8063df15c37e14610389578063e10e20ab146103ab578063ebc50c3a146103d257610165565b8063960b278a146102ea57806396affb251461030a578063b52bd9c61461031f578063b5c210ca1461033f578063bb6f24d21461035f578063c4172bcb1461037457610165565b80635b573186116101235780635b5731861461023e5780636103d9151461026b578063653198a114610298578063715018a6146102b85780638942d0b3146102cd5780638da5cb5b146102d557610165565b8062ce8e3e1461016a5780631737122c146101955780631e98fd1c146101ac5780632e1a7d4d146101dc57806335ea3925146101fc5780634ca916181461021e575b600080fd5b34801561017657600080fd5b5061017f61045e565b60405161018c9190611a16565b60405180910390f35b3480156101a157600080fd5b506101aa6104ed565b005b3480156101b857600080fd5b506101cc6101c736600461185e565b610549565b60405161018c94939291906119a1565b3480156101e857600080fd5b506101aa6101f736600461185e565b610590565b34801561020857600080fd5b50610211610600565b60405161018c9190611d18565b34801561022a57600080fd5b506101aa61023936600461185e565b610606565b34801561024a57600080fd5b5061025e610259366004611727565b61064a565b60405161018c9190611d04565b34801561027757600080fd5b5061028b61028636600461185e565b610780565b60405161018c919061198d565b3480156102a457600080fd5b506101aa6102b336600461185e565b6107aa565b3480156102c457600080fd5b506101aa6107ee565b6101aa610839565b3480156102e157600080fd5b5061028b6109fd565b3480156102f657600080fd5b506101aa61030536600461185e565b610a0c565b34801561031657600080fd5b50610211610a50565b61033261032d366004611755565b610a56565b60405161018c9190611a58565b34801561034b57600080fd5b5061033261035a366004611727565b610d84565b34801561036b57600080fd5b50610211610e42565b34801561038057600080fd5b506101aa610e48565b34801561039557600080fd5b5061039e610ecc565b60405161018c91906119c9565b3480156103b757600080fd5b506103c0610f2e565b60405161018c96959493929190611a63565b3480156103de57600080fd5b506101aa61106c565b3480156103f357600080fd5b506102116110c8565b34801561040857600080fd5b506104116110ce565b60405161018c9190611c3b565b34801561042a57600080fd5b506101aa610439366004611790565b611308565b34801561044a57600080fd5b506101aa610459366004611727565b611420565b6060600d805480602002602001604051908101604052809291908181526020016000905b828210156104e4576000848152602090819020604080516080810182526004860290920180546001600160a01b03168352600180820154848601526002820154928401929092526003015460ff16151560608301529083529092019101610482565b50505050905090565b6104f561148e565b6001600160a01b03166105066109fd565b6001600160a01b0316146105355760405162461bcd60e51b815260040161052c90611bcf565b60405180910390fd5b600c805460ff19811660ff90911615179055565b600d818154811061055957600080fd5b600091825260209091206004909102018054600182015460028301546003909301546001600160a01b039092169350919060ff1684565b61059861148e565b6001600160a01b03166105a96109fd565b6001600160a01b0316146105cf5760405162461bcd60e51b815260040161052c90611bcf565b604051339082156108fc029083906000818181858888f193505050501580156105fc573d6000803e3d6000fd5b5050565b60045481565b61060e61148e565b6001600160a01b031661061f6109fd565b6001600160a01b0316146106455760405162461bcd60e51b815260040161052c90611bcf565b600155565b6106526114e2565b61065a6114e2565b60005b600d5481101561077757836001600160a01b0316600d828154811061069257634e487b7160e01b600052603260045260246000fd5b60009182526020909120600490910201546001600160a01b03161480156106ed5750600d81815481106106d557634e487b7160e01b600052603260045260246000fd5b600091825260209091206003600490920201015460ff165b1561076557600d818154811061071357634e487b7160e01b600052603260045260246000fd5b600091825260209182902060408051608081018252600490930290910180546001600160a01b0316835260018101549383019390935260028301549082015260039091015460ff161515606082015291505b8061076f81611ddc565b91505061065d565b5090505b919050565b600e818154811061079057600080fd5b6000918252602090912001546001600160a01b0316905081565b6107b261148e565b6001600160a01b03166107c36109fd565b6001600160a01b0316146107e95760405162461bcd60e51b815260040161052c90611bcf565b600455565b6107f661148e565b6001600160a01b03166108076109fd565b6001600160a01b03161461082d5760405162461bcd60e51b815260040161052c90611bcf565b6108376000611492565b565b600c5460ff1680156108535750600c54610100900460ff16155b806108735750600c5460ff161580156108735750600c54610100900460ff165b61088f5760405162461bcd60e51b815260040161052c90611c04565b6108983361064a565b60600151156108b95760405162461bcd60e51b815260040161052c90611b56565b6001543410156108db5760405162461bcd60e51b815260040161052c90611aaf565b60408051608081018252338152600060208201818152600354938301938452600160608401818152600d805492830181559384905284517fd7b6990105719101dabeb77144f2a3385c8033acd3af97e9423a695e81ad1eb5600493840290810180546001600160a01b0319166001600160a01b039093169290921790915592517fd7b6990105719101dabeb77144f2a3385c8033acd3af97e9423a695e81ad1eb684015594517fd7b6990105719101dabeb77144f2a3385c8033acd3af97e9423a695e81ad1eb783015593517fd7b6990105719101dabeb77144f2a3385c8033acd3af97e9423a695e81ad1eb8909101805460ff1916911515919091179055915491549091116109fa57600c805461ff001960ff199091166001171690555b50565b6000546001600160a01b031690565b610a1461148e565b6001600160a01b0316610a256109fd565b6001600160a01b031614610a4b5760405162461bcd60e51b815260040161052c90611bcf565b600355565b60025481565b600c5460009060ff168015610a735750600c54610100900460ff16155b610a8f5760405162461bcd60e51b815260040161052c90611c04565b610a983361064a565b60600151610ab85760405162461bcd60e51b815260040161052c90611b2c565b6000610ac33361064a565b6040015111610ae45760405162461bcd60e51b815260040161052c90611b8d565b81604051602001610af591906118d6565b60408051601f1981840301815290829052805160209182012091610b1c91600b91016118f2565b604051602081830303815290604052805190602001201415610cbf57600654604051339180156108fc02916000818181858888f19350505050158015610b66573d6000803e3d6000fd5b50604080516020810191829052600090819052610b8591600591611515565b5060006006819055600781905560408051608081018252606081018381528152815160208181018452848252808301919091528251908101835292835290810191909152610bd7906008906003611599565b50604080516020810191829052600090819052610bf691600b91611515565b50600c805461ffff19169055610c0a610e48565b600e54600a1415610c765760005b600a811015610c7457600e805480610c4057634e487b7160e01b600052603160045260246000fd5b600082815260209020810160001990810180546001600160a01b031916905501905580610c6c81611ddc565b915050610c18565b505b50600e8054600181810183556000929092527fbb7b4a454dc3493923482f07822329ed19e8244eff582cc204f8554c3620c3fd0180546001600160a01b0319163317905561077b565b60005b600d54811015610d7a57610cd53361064a565b600001516001600160a01b0316600d8281548110610d0357634e487b7160e01b600052603260045260246000fd5b60009182526020909120600490910201546001600160a01b03161415610d6857600d8181548110610d4457634e487b7160e01b600052603260045260246000fd5b600091825260208220600260049092020101805491610d6283611d8a565b91905055505b80610d7281611ddc565b915050610cc2565b506000905061077b565b6000805b600d54811015610e3957826001600160a01b0316600d8281548110610dbd57634e487b7160e01b600052603260045260246000fd5b60009182526020909120600490910201546001600160a01b0316148015610e185750600d8181548110610e0057634e487b7160e01b600052603260045260246000fd5b600091825260209091206003600490920201015460ff165b15610e2757600191505061077b565b80610e3181611ddc565b915050610d88565b50600092915050565b60035481565b600d54156108375760005b600d5481116109fa57600d805480610e7b57634e487b7160e01b600052603160045260246000fd5b60008281526020812060046000199093019283020180546001600160a01b0319168155600181018290556002810191909155600301805460ff19169055905580610ec481611ddc565b915050610e53565b6060600e805480602002602001604051908101604052809291908181526020018280548015610f2457602002820191906000526020600020905b81546001600160a01b03168152600190910190602001808311610f06575b5050505050905090565b600580548190610f3d90611da1565b80601f0160208091040260200160405190810160405280929190818152602001828054610f6990611da1565b8015610fb65780601f10610f8b57610100808354040283529160200191610fb6565b820191906000526020600020905b815481529060010190602001808311610f9957829003601f168201915b505050505090806001015490806002015490806006018054610fd790611da1565b80601f016020809104026020016040519081016040528092919081815260200182805461100390611da1565b80156110505780601f1061102557610100808354040283529160200191611050565b820191906000526020600020905b81548152906001019060200180831161103357829003601f168201915b5050506007909301549192505060ff8082169161010090041686565b61107461148e565b6001600160a01b03166110856109fd565b6001600160a01b0316146110ab5760405162461bcd60e51b815260040161052c90611bcf565b600c805461ff001981166101009182900460ff1615909102179055565b60015481565b6110d66115e5565b60056040518060e00160405290816000820180546110f390611da1565b80601f016020809104026020016040519081016040528092919081815260200182805461111f90611da1565b801561116c5780601f106111415761010080835404028352916020019161116c565b820191906000526020600020905b81548152906001019060200180831161114f57829003601f168201915b50505050508152602001600182015481526020016002820154815260200160038201600380602002604051908101604052809291906000905b828210156112485783820180546111bb90611da1565b80601f01602080910402602001604051908101604052809291908181526020018280546111e790611da1565b80156112345780601f1061120957610100808354040283529160200191611234565b820191906000526020600020905b81548152906001019060200180831161121757829003601f168201915b5050505050815260200190600101906111a5565b50505050815260200160068201805461126090611da1565b80601f016020809104026020016040519081016040528092919081815260200182805461128c90611da1565b80156112d95780601f106112ae576101008083540402835291602001916112d9565b820191906000526020600020905b8154815290600101906020018083116112bc57829003601f168201915b50505091835250506007919091015460ff80821615156020840152610100909104161515604090910152905090565b61131061148e565b6001600160a01b03166113216109fd565b6001600160a01b0316146113475760405162461bcd60e51b815260040161052c90611bcf565b6040805160e0810182528581526002546020808301919091529181018590526060810184905260808101839052600060a0820152600160c08201528551909160059161139891839190890190611515565b50602082015160018201556040820151600282015560608201516113c29060038084019190611599565b50608082015180516113de916006840191602090910190611515565b5060a08201516007909101805460c09093015115156101000261ff001992151560ff19909416939093179190911691909117905561141a610e48565b50505050565b61142861148e565b6001600160a01b03166114396109fd565b6001600160a01b03161461145f5760405162461bcd60e51b815260040161052c90611bcf565b6001600160a01b0381166114855760405162461bcd60e51b815260040161052c90611ae6565b6109fa81611492565b3390565b600080546001600160a01b038381166001600160a01b0319831681178455604051919092169283917f8be0079c531659141344cd1fd0a4f28419497f9722a3daafe3b4186f6b6457e09190a35050565b604051806080016040528060006001600160a01b0316815260200160008152602001600081526020016000151581525090565b82805461152190611da1565b90600052602060002090601f0160209004810192826115435760008555611589565b82601f1061155c57805160ff1916838001178555611589565b82800160010185558215611589579182015b8281111561158957825182559160200191906001019061156e565b50611595929150611627565b5090565b82600381019282156115d9579160200282015b828111156115d957825180516115c9918491602090910190611515565b50916020019190600101906115ac565b5061159592915061163c565b6040518060e0016040528060608152602001600081526020016000815260200161160d611659565b815260606020820181905260006040830181905291015290565b5b808211156115955760008155600101611628565b808211156115955760006116508282611680565b5060010161163c565b60405180606001604052806003905b60608152602001906001900390816116685790505090565b50805461168c90611da1565b6000825580601f1061169e57506109fa565b601f0160209004906000526020600020908101906109fa9190611627565b600082601f8301126116cc578081fd5b813567ffffffffffffffff8111156116e6576116e6611e0d565b6116f9601f8201601f1916602001611d21565b81815284602083860101111561170d578283fd5b816020850160208301379081016020019190915292915050565b600060208284031215611738578081fd5b81356001600160a01b038116811461174e578182fd5b9392505050565b600060208284031215611766578081fd5b813567ffffffffffffffff81111561177c578182fd5b611788848285016116bc565b949350505050565b600080600080608085870312156117a5578283fd5b843567ffffffffffffffff808211156117bc578485fd5b6117c8888389016116bc565b9550602091508187013594506040870135818111156117e5578485fd5b8701601f810189136117f5578485fd5b6117ff6060611d21565b8082875b600381101561182b576118198d833587016116bc565b84529286019290860190600101611803565b509096505050506060870135915080821115611845578283fd5b50611852878288016116bc565b91505092959194509250565b60006020828403121561186f578081fd5b5035919050565b15159052565b60008151808452611894816020860160208601611d5e565b601f01601f19169290920160200192915050565b80516001600160a01b0316825260208082015190830152604080820151908301526060908101511515910152565b600082516118e8818460208701611d5e565b9190910192915050565b815460009081906002810460018083168061190e57607f831692505b602080841082141561192e57634e487b7160e01b87526022600452602487fd5b81801561194257600181146119535761197f565b60ff1986168952848901965061197f565b61195c8a611d52565b885b868110156119775781548b82015290850190830161195e565b505084890196505b509498975050505050505050565b6001600160a01b0391909116815260200190565b6001600160a01b03949094168452602084019290925260408301521515606082015260800190565b6020808252825182820181905260009190848201906040850190845b81811015611a0a5783516001600160a01b0316835292840192918401916001016119e5565b50909695505050505050565b6020808252825182820181905260009190848201906040850190845b81811015611a0a57611a458385516118a8565b9284019260809290920191600101611a32565b901515815260200190565b600060c08252611a7660c083018961187c565b8760208401528660408401528281036060840152611a94818761187c565b9415156080840152505090151560a090910152949350505050565b6020808252601b908201527f4d415449432076616c75652073656e74206e6f742076616c6964210000000000604082015260600190565b60208082526026908201527f4f776e61626c653a206e6577206f776e657220697320746865207a65726f206160408201526564647265737360d01b606082015260800190565b60208082526010908201526f55736572206e6f74206a6f696e65642160801b604082015260600190565b60208082526017908201527f5573657220697320616c7265616479206a6f696e656421000000000000000000604082015260600190565b60208082526022908201527f5573657220686173206e6f7420616e7377657220636f756e742c20656e6f7567604082015261682160f01b606082015260800190565b6020808252818101527f4f776e61626c653a2063616c6c6572206973206e6f7420746865206f776e6572604082015260600190565b6020808252601a908201527f4368616c6c656e6765206e6f7420737461727465642079657421000000000000604082015260600190565b60006020808352835160e082850152611c5861010085018261187c565b9050818501516040850152604085015160608501526060850151601f19808684030160808701528283905060608401865b6003811015611cb4578582038352611ca282865161187c565b94870194928701929150600101611c89565b5060808901519550828882030160a0890152611cd0818761187c565b9550505050505060a0840151611ce960c0850182611876565b5060c0840151611cfc60e0850182611876565b509392505050565b60808101611d1282846118a8565b92915050565b90815260200190565b604051601f8201601f1916810167ffffffffffffffff81118282101715611d4a57611d4a611e0d565b604052919050565b60009081526020902090565b60005b83811015611d79578181015183820152602001611d61565b8381111561141a5750506000910152565b600081611d9957611d99611df7565b506000190190565b600281046001821680611db557607f821691505b60208210811415611dd657634e487b7160e01b600052602260045260246000fd5b50919050565b6000600019821415611df057611df0611df7565b5060010190565b634e487b7160e01b600052601160045260246000fd5b634e487b7160e01b600052604160045260246000fdfea264697066735822122080dea874155fd2c4ebd2095e3b445dc0776b57ac78f1f65efdcd6cfa1cfd424164736f6c63430008010033",
  "immutableReferences": {},
  "source": "// SPDX-License-Identifier: GPL-3.0\r\n\r\npragma solidity ^0.8.0;\r\n\r\nimport \"@openzeppelin/contracts/access/Ownable.sol\";\r\nimport \"./Question.sol\";\r\nimport \"./User.sol\";\r\n\r\ncontract SmartContract is Ownable{\r\n    uint public challengeCost = 0.0001 ether;\r\n    uint public challengePrize = 0.0002 ether;\r\n    uint public challengeAnswerCount = 2;\r\n    uint public waitUserCount = 2;\r\n    \r\n    Question public newQuestion;\r\n    User[] public Users;\r\n    //mapping(address => User) ParticipantMap;\r\n    address[] public Winners;\r\n\r\n    //Creates Question\r\n    function createQuestion(\r\n        string memory _desc, \r\n        uint _date, \r\n        string[3] memory _hints,\r\n        string memory _answer) public onlyOwner()\r\n    {\r\n        newQuestion = Question(_desc, challengePrize, _date, _hints, _answer, false, true);\r\n\r\n        clearUsers();\r\n    }\r\n\r\n    function getQuestion() public view returns(Question memory)\r\n    {\r\n        return newQuestion;\r\n    }\r\n\r\n    function getUsers() public view returns(User[] memory)\r\n    {\r\n        return Users;\r\n    }\r\n\r\n    function getWinners() public view returns(address[] memory)\r\n    {\r\n        return Winners;\r\n    }\r\n\r\n    function clearUsers() public {\r\n        //If users exist, clean up\r\n        if(Users.length > 0){\r\n            for(uint i=0;i<=Users.length;i++){\r\n                Users.pop();\r\n            }\r\n        }\r\n    }\r\n    //Joins Challenge\r\n    function joinChallenge() public payable\r\n    {\r\n        //Is challenge started or waiting participant?\r\n        require((newQuestion.qState && !newQuestion.qWait) || (!newQuestion.qState && newQuestion.qWait), \"Challenge not started yet!\");\r\n        //Is Participant exist?\r\n        require(!checkParticipant(msg.sender).isJoined, \"User is already joined!\");\r\n        require(msg.value >= challengeCost, \"MATIC value sent not valid!\");\r\n\r\n        User memory newUser = User(msg.sender, 0, challengeAnswerCount, true);\r\n        Users.push(newUser);\r\n\r\n        if(Users.length >= waitUserCount){\r\n            newQuestion.qState = true;\r\n            newQuestion.qWait = false;\r\n        }\r\n    }\r\n    \r\n    //Checks Answer\r\n    function checkAnswer(string memory _answer) public payable returns(bool)\r\n    {   \r\n        //Is challenge started or waiting participant?\r\n        require(newQuestion.qState && !newQuestion.qWait, \"Challenge not started yet!\");\r\n        //Is Participant exist?\r\n        require(checkParticipant(msg.sender).isJoined, \"User not joined!\");\r\n        require(checkParticipant(msg.sender).uAnswerCount > 0, \"User has not answer count, enough!\");\r\n\r\n\r\n        //If answer true, stop the challenge and send the coin to winner\r\n        if(keccak256(abi.encodePacked(newQuestion.qAnswer)) == keccak256(abi.encodePacked(_answer)))\r\n        {\r\n            //Sending prize to winner\r\n            payable(msg.sender).transfer(newQuestion.qPrize);//0,00001\r\n\r\n            //Challenge is ending\r\n            newQuestion.qDesc = \"\";\r\n            newQuestion.qPrize = 0;\r\n            newQuestion.qDate = 0;\r\n            newQuestion. qHints = [\"\",\"\",\"\"];\r\n            newQuestion.qAnswer = \"\";\r\n            newQuestion.qState = false;\r\n            newQuestion.qWait = false;\r\n\r\n            //Participants cleaning\r\n            clearUsers();\r\n\r\n            //Only the last 10 winner storing\r\n            if(Winners.length == 10){\r\n                for(uint i=0;i<10;i++)\r\n                    Winners.pop();\r\n            }\r\n            Winners.push(msg.sender);\r\n            return true;   \r\n        }\r\n        else{\r\n            //Decreasing msg.sender answer count\r\n            for(uint i=0;i<Users.length;i++){\r\n                if(Users[i].uWallet == checkParticipant(msg.sender).uWallet)\r\n                    Users[i].uAnswerCount--;\r\n            }\r\n            return false;\r\n        }\r\n    }\r\n\r\n    function checkParticipant(address _userAddress) public view returns(User memory)\r\n    {\r\n        User memory user;\r\n        for(uint i=0; i<Users.length; i++)\r\n        {\r\n            //If user exist and joined\r\n            if(Users[i].uWallet == _userAddress && Users[i].isJoined)\r\n                user = Users[i];\r\n        }\r\n        return user;\r\n    }\r\n\r\n    function isUserJoined(address _userAddress) public view returns(bool){\r\n        for(uint i=0; i<Users.length; i++)\r\n        {\r\n            //If user exist and joined\r\n            if(Users[i].uWallet == _userAddress && Users[i].isJoined)\r\n                return true;\r\n        }\r\n        return false;\r\n    }\r\n    \r\n    //Parameter type is must be wei\r\n    function withdraw(uint _amount) public onlyOwner() {\r\n        payable(msg.sender).transfer(_amount);\r\n    }\r\n\r\n    /*Set Functions*/\r\n    function changeStartedState() public onlyOwner()\r\n    {\r\n        newQuestion.qState = !newQuestion.qState;\r\n    }\r\n\r\n    function changeWaitingState() public onlyOwner()\r\n    {\r\n        newQuestion.qWait = !newQuestion.qWait;\r\n    }\r\n\r\n    function setChallengeCost(uint _newCost) public onlyOwner(){\r\n        challengeCost = _newCost;\r\n    }\r\n\r\n    function setAnswerCount(uint _newCount) public onlyOwner(){\r\n        challengeAnswerCount = _newCount;\r\n    }\r\n\r\n    function setWaitUserCount(uint _newCount) public onlyOwner(){\r\n        waitUserCount = _newCount;\r\n    }\r\n    /*Set Functions END*/\r\n}",
  "sourcePath": "C:\\Users\\DELL\\Desktop\\dapp-test-app\\contracts\\SmartContract.sol",
  "compiler": {
    "name": "solc",
    "version": "0.8.1+commit.df193b15.Emscripten.clang"
  },
  "schemaVersion": "3.4.5",
  "updatedAt": "2022-04-19T06:25:42.367Z",
  "networkType": "ethereum",
  "devdoc": {
    "kind": "dev",
    "methods": {
      "owner()": {
        "details": "Returns the address of the current owner."
      },
      "renounceOwnership()": {
        "details": "Leaves the contract without owner. It will not be possible to call `onlyOwner` functions anymore. Can only be called by the current owner. NOTE: Renouncing ownership will leave the contract without an owner, thereby removing any functionality that is only available to the owner."
      },
      "transferOwnership(address)": {
        "details": "Transfers ownership of the contract to a new account (`newOwner`). Can only be called by the current owner."
      }
    },
    "version": 1
  },
  "userdoc": {
    "kind": "user",
    "methods": {},
    "version": 1
  }
}