{
  "contractName": "SmartContract",
  "abi": [
    {
      "anonymous": false,
      "inputs": [
        {
          "indexed": true,
          "internalType": "address",
          "name": "previousOwner",
          "type": "address"
        },
        {
          "indexed": true,
          "internalType": "address",
          "name": "newOwner",
          "type": "address"
        }
      ],
      "name": "OwnershipTransferred",
      "type": "event"
    },
    {
      "inputs": [
        {
          "internalType": "uint256",
          "name": "",
          "type": "uint256"
        }
      ],
      "name": "Users",
      "outputs": [
        {
          "internalType": "address",
          "name": "uWallet",
          "type": "address"
        },
        {
          "internalType": "uint256",
          "name": "uHintCount",
          "type": "uint256"
        },
        {
          "internalType": "uint256",
          "name": "uAnswerCount",
          "type": "uint256"
        },
        {
          "internalType": "bool",
          "name": "isJoined",
          "type": "bool"
        }
      ],
      "stateMutability": "view",
      "type": "function",
      "constant": true
    },
    {
      "inputs": [
        {
          "internalType": "uint256",
          "name": "",
          "type": "uint256"
        }
      ],
      "name": "Winners",
      "outputs": [
        {
          "internalType": "address",
          "name": "",
          "type": "address"
        }
      ],
      "stateMutability": "view",
      "type": "function",
      "constant": true
    },
    {
      "inputs": [],
      "name": "challengeAnswerCount",
      "outputs": [
        {
          "internalType": "uint256",
          "name": "",
          "type": "uint256"
        }
      ],
      "stateMutability": "view",
      "type": "function",
      "constant": true
    },
    {
      "inputs": [],
      "name": "challengeCost",
      "outputs": [
        {
          "internalType": "uint256",
          "name": "",
          "type": "uint256"
        }
      ],
      "stateMutability": "view",
      "type": "function",
      "constant": true
    },
    {
      "inputs": [],
      "name": "challengePrize",
      "outputs": [
        {
          "internalType": "uint256",
          "name": "",
          "type": "uint256"
        }
      ],
      "stateMutability": "view",
      "type": "function",
      "constant": true
    },
    {
      "inputs": [],
      "name": "newQuestion",
      "outputs": [
        {
          "internalType": "string",
          "name": "qDesc",
          "type": "string"
        },
        {
          "internalType": "uint256",
          "name": "qPrize",
          "type": "uint256"
        },
        {
          "internalType": "uint256",
          "name": "qDate",
          "type": "uint256"
        },
        {
          "internalType": "string",
          "name": "qAnswer",
          "type": "string"
        },
        {
          "internalType": "bool",
          "name": "qState",
          "type": "bool"
        },
        {
          "internalType": "bool",
          "name": "qWait",
          "type": "bool"
        }
      ],
      "stateMutability": "view",
      "type": "function",
      "constant": true
    },
    {
      "inputs": [],
      "name": "owner",
      "outputs": [
        {
          "internalType": "address",
          "name": "",
          "type": "address"
        }
      ],
      "stateMutability": "view",
      "type": "function",
      "constant": true
    },
    {
      "inputs": [],
      "name": "renounceOwnership",
      "outputs": [],
      "stateMutability": "nonpayable",
      "type": "function"
    },
    {
      "inputs": [
        {
          "internalType": "address",
          "name": "newOwner",
          "type": "address"
        }
      ],
      "name": "transferOwnership",
      "outputs": [],
      "stateMutability": "nonpayable",
      "type": "function"
    },
    {
      "inputs": [],
      "name": "waitUserCount",
      "outputs": [
        {
          "internalType": "uint256",
          "name": "",
          "type": "uint256"
        }
      ],
      "stateMutability": "view",
      "type": "function",
      "constant": true
    },
    {
      "inputs": [
        {
          "internalType": "string",
          "name": "_desc",
          "type": "string"
        },
        {
          "internalType": "uint256",
          "name": "_date",
          "type": "uint256"
        },
        {
          "internalType": "string[3]",
          "name": "_hints",
          "type": "string[3]"
        },
        {
          "internalType": "string",
          "name": "_answer",
          "type": "string"
        }
      ],
      "name": "createQuestion",
      "outputs": [],
      "stateMutability": "nonpayable",
      "type": "function"
    },
    {
      "inputs": [],
      "name": "getQuestion",
      "outputs": [
        {
          "components": [
            {
              "internalType": "string",
              "name": "qDesc",
              "type": "string"
            },
            {
              "internalType": "uint256",
              "name": "qPrize",
              "type": "uint256"
            },
            {
              "internalType": "uint256",
              "name": "qDate",
              "type": "uint256"
            },
            {
              "internalType": "string[3]",
              "name": "qHints",
              "type": "string[3]"
            },
            {
              "internalType": "string",
              "name": "qAnswer",
              "type": "string"
            },
            {
              "internalType": "bool",
              "name": "qState",
              "type": "bool"
            },
            {
              "internalType": "bool",
              "name": "qWait",
              "type": "bool"
            }
          ],
          "internalType": "struct SmartContract.Question",
          "name": "",
          "type": "tuple"
        }
      ],
      "stateMutability": "view",
      "type": "function",
      "constant": true
    },
    {
      "inputs": [],
      "name": "getUsers",
      "outputs": [
        {
          "components": [
            {
              "internalType": "address",
              "name": "uWallet",
              "type": "address"
            },
            {
              "internalType": "uint256",
              "name": "uHintCount",
              "type": "uint256"
            },
            {
              "internalType": "uint256",
              "name": "uAnswerCount",
              "type": "uint256"
            },
            {
              "internalType": "bool",
              "name": "isJoined",
              "type": "bool"
            }
          ],
          "internalType": "struct SmartContract.User[]",
          "name": "",
          "type": "tuple[]"
        }
      ],
      "stateMutability": "view",
      "type": "function",
      "constant": true
    },
    {
      "inputs": [],
      "name": "getWinners",
      "outputs": [
        {
          "internalType": "address[]",
          "name": "",
          "type": "address[]"
        }
      ],
      "stateMutability": "view",
      "type": "function",
      "constant": true
    },
    {
      "inputs": [],
      "name": "clearUsers",
      "outputs": [],
      "stateMutability": "nonpayable",
      "type": "function"
    },
    {
      "inputs": [],
      "name": "joinChallenge",
      "outputs": [],
      "stateMutability": "payable",
      "type": "function",
      "payable": true
    },
    {
      "inputs": [
        {
          "internalType": "string",
          "name": "_answer",
          "type": "string"
        }
      ],
      "name": "checkAnswer",
      "outputs": [
        {
          "internalType": "bool",
          "name": "",
          "type": "bool"
        }
      ],
      "stateMutability": "payable",
      "type": "function",
      "payable": true
    },
    {
      "inputs": [
        {
          "internalType": "address",
          "name": "_userAddress",
          "type": "address"
        }
      ],
      "name": "checkParticipant",
      "outputs": [
        {
          "components": [
            {
              "internalType": "address",
              "name": "uWallet",
              "type": "address"
            },
            {
              "internalType": "uint256",
              "name": "uHintCount",
              "type": "uint256"
            },
            {
              "internalType": "uint256",
              "name": "uAnswerCount",
              "type": "uint256"
            },
            {
              "internalType": "bool",
              "name": "isJoined",
              "type": "bool"
            }
          ],
          "internalType": "struct SmartContract.User",
          "name": "",
          "type": "tuple"
        }
      ],
      "stateMutability": "view",
      "type": "function",
      "constant": true
    },
    {
      "inputs": [
        {
          "internalType": "address",
          "name": "_userAddress",
          "type": "address"
        }
      ],
      "name": "isUserJoined",
      "outputs": [
        {
          "internalType": "bool",
          "name": "",
          "type": "bool"
        }
      ],
      "stateMutability": "view",
      "type": "function",
      "constant": true
    },
    {
      "inputs": [
        {
          "internalType": "uint256",
          "name": "_amount",
          "type": "uint256"
        }
      ],
      "name": "withdraw",
      "outputs": [],
      "stateMutability": "nonpayable",
      "type": "function"
    },
    {
      "inputs": [],
      "name": "changeStartedState",
      "outputs": [],
      "stateMutability": "nonpayable",
      "type": "function"
    },
    {
      "inputs": [],
      "name": "changeWaitingState",
      "outputs": [],
      "stateMutability": "nonpayable",
      "type": "function"
    },
    {
      "inputs": [
        {
          "internalType": "uint256",
          "name": "_newCost",
          "type": "uint256"
        }
      ],
      "name": "setChallengeCost",
      "outputs": [],
      "stateMutability": "nonpayable",
      "type": "function"
    },
    {
      "inputs": [
        {
          "internalType": "uint256",
          "name": "_newCount",
          "type": "uint256"
        }
      ],
      "name": "setAnswerCount",
      "outputs": [],
      "stateMutability": "nonpayable",
      "type": "function"
    },
    {
      "inputs": [
        {
          "internalType": "uint256",
          "name": "_newCount",
          "type": "uint256"
        }
      ],
      "name": "setWaitUserCount",
      "outputs": [],
      "stateMutability": "nonpayable",
      "type": "function"
    }
  ],
  "bytecode": "0x6080604052655af3107a400060015565b5e620f480006002556002600355600260045534801561002e57600080fd5b5061003f61003a610044565b610048565b610098565b3390565b600080546001600160a01b038381166001600160a01b0319831681178455604051919092169283917f8be0079c531659141344cd1fd0a4f28419497f9722a3daafe3b4186f6b6457e09190a35050565b611e5a806100a76000396000f3fe6080604052600436106101655760003560e01c8063960b278a116100d1578063df15c37e1161008a578063eda1970b11610064578063eda1970b146103e7578063eff38f92146103fc578063f256503f1461041e578063f2fde38b1461043e57610165565b8063df15c37e14610389578063e10e20ab146103ab578063ebc50c3a146103d257610165565b8063960b278a146102ea57806396affb251461030a578063b52bd9c61461031f578063b5c210ca1461033f578063bb6f24d21461035f578063c4172bcb1461037457610165565b80635b573186116101235780635b5731861461023e5780636103d9151461026b578063653198a114610298578063715018a6146102b85780638942d0b3146102cd5780638da5cb5b146102d557610165565b8062ce8e3e1461016a5780631737122c146101955780631e98fd1c146101ac5780632e1a7d4d146101dc57806335ea3925146101fc5780634ca916181461021e575b600080fd5b34801561017657600080fd5b5061017f61045e565b60405161018c9190611a17565b60405180910390f35b3480156101a157600080fd5b506101aa6104ed565b005b3480156101b857600080fd5b506101cc6101c736600461185f565b610549565b60405161018c94939291906119a2565b3480156101e857600080fd5b506101aa6101f736600461185f565b610590565b34801561020857600080fd5b50610211610600565b60405161018c9190611d19565b34801561022a57600080fd5b506101aa61023936600461185f565b610606565b34801561024a57600080fd5b5061025e610259366004611728565b61064a565b60405161018c9190611d05565b34801561027757600080fd5b5061028b61028636600461185f565b610780565b60405161018c919061198e565b3480156102a457600080fd5b506101aa6102b336600461185f565b6107aa565b3480156102c457600080fd5b506101aa6107ee565b6101aa610839565b3480156102e157600080fd5b5061028b6109fd565b3480156102f657600080fd5b506101aa61030536600461185f565b610a0c565b34801561031657600080fd5b50610211610a50565b61033261032d366004611756565b610a56565b60405161018c9190611a59565b34801561034b57600080fd5b5061033261035a366004611728565b610d85565b34801561036b57600080fd5b50610211610e43565b34801561038057600080fd5b506101aa610e49565b34801561039557600080fd5b5061039e610ecd565b60405161018c91906119ca565b3480156103b757600080fd5b506103c0610f2f565b60405161018c96959493929190611a64565b3480156103de57600080fd5b506101aa61106d565b3480156103f357600080fd5b506102116110c9565b34801561040857600080fd5b506104116110cf565b60405161018c9190611c3c565b34801561042a57600080fd5b506101aa610439366004611791565b611309565b34801561044a57600080fd5b506101aa610459366004611728565b611421565b6060600d805480602002602001604051908101604052809291908181526020016000905b828210156104e4576000848152602090819020604080516080810182526004860290920180546001600160a01b03168352600180820154848601526002820154928401929092526003015460ff16151560608301529083529092019101610482565b50505050905090565b6104f561148f565b6001600160a01b03166105066109fd565b6001600160a01b0316146105355760405162461bcd60e51b815260040161052c90611bd0565b60405180910390fd5b600c805460ff19811660ff90911615179055565b600d818154811061055957600080fd5b600091825260209091206004909102018054600182015460028301546003909301546001600160a01b039092169350919060ff1684565b61059861148f565b6001600160a01b03166105a96109fd565b6001600160a01b0316146105cf5760405162461bcd60e51b815260040161052c90611bd0565b604051339082156108fc029083906000818181858888f193505050501580156105fc573d6000803e3d6000fd5b5050565b60045481565b61060e61148f565b6001600160a01b031661061f6109fd565b6001600160a01b0316146106455760405162461bcd60e51b815260040161052c90611bd0565b600155565b6106526114e3565b61065a6114e3565b60005b600d5481101561077757836001600160a01b0316600d828154811061069257634e487b7160e01b600052603260045260246000fd5b60009182526020909120600490910201546001600160a01b03161480156106ed5750600d81815481106106d557634e487b7160e01b600052603260045260246000fd5b600091825260209091206003600490920201015460ff165b1561076557600d818154811061071357634e487b7160e01b600052603260045260246000fd5b600091825260209182902060408051608081018252600490930290910180546001600160a01b0316835260018101549383019390935260028301549082015260039091015460ff161515606082015291505b8061076f81611ddd565b91505061065d565b5090505b919050565b600e818154811061079057600080fd5b6000918252602090912001546001600160a01b0316905081565b6107b261148f565b6001600160a01b03166107c36109fd565b6001600160a01b0316146107e95760405162461bcd60e51b815260040161052c90611bd0565b600455565b6107f661148f565b6001600160a01b03166108076109fd565b6001600160a01b03161461082d5760405162461bcd60e51b815260040161052c90611bd0565b6108376000611493565b565b600c5460ff1680156108535750600c54610100900460ff16155b806108735750600c5460ff161580156108735750600c54610100900460ff165b61088f5760405162461bcd60e51b815260040161052c90611c05565b6108983361064a565b60600151156108b95760405162461bcd60e51b815260040161052c90611b57565b6001543410156108db5760405162461bcd60e51b815260040161052c90611ab0565b60408051608081018252338152600060208201818152600354938301938452600160608401818152600d805492830181559384905284517fd7b6990105719101dabeb77144f2a3385c8033acd3af97e9423a695e81ad1eb5600493840290810180546001600160a01b0319166001600160a01b039093169290921790915592517fd7b6990105719101dabeb77144f2a3385c8033acd3af97e9423a695e81ad1eb684015594517fd7b6990105719101dabeb77144f2a3385c8033acd3af97e9423a695e81ad1eb783015593517fd7b6990105719101dabeb77144f2a3385c8033acd3af97e9423a695e81ad1eb8909101805460ff1916911515919091179055915491549091116109fa57600c805461ff001960ff199091166001171690555b50565b6000546001600160a01b031690565b610a1461148f565b6001600160a01b0316610a256109fd565b6001600160a01b031614610a4b5760405162461bcd60e51b815260040161052c90611bd0565b600355565b60025481565b600c5460009060ff168015610a735750600c54610100900460ff16155b610a8f5760405162461bcd60e51b815260040161052c90611c05565b610a983361064a565b60600151610ab85760405162461bcd60e51b815260040161052c90611b2d565b6000610ac33361064a565b6040015111610ae45760405162461bcd60e51b815260040161052c90611b8e565b81604051602001610af591906118d7565b60408051601f1981840301815290829052805160209182012091610b1c91600b91016118f3565b604051602081830303815290604052805190602001201415610cc057600654604051339180156108fc02916000818181858888f19350505050158015610b66573d6000803e3d6000fd5b50604080516020810191829052600090819052610b8591600591611516565b5060006006819055600781905560408051608081018252606081018381528152815160208181018452848252808301919091528251908101835292835290810191909152610bd790600890600361159a565b50604080516020810191829052600090819052610bf691600b91611516565b50600c805461ffff19169055610c0a610e49565b600e54600a1415610c775760005b600e54811015610c7557600e805480610c4157634e487b7160e01b600052603160045260246000fd5b600082815260209020810160001990810180546001600160a01b031916905501905580610c6d81611ddd565b915050610c18565b505b50600e8054600181810183556000929092527fbb7b4a454dc3493923482f07822329ed19e8244eff582cc204f8554c3620c3fd0180546001600160a01b0319163317905561077b565b60005b600d54811015610d7b57610cd63361064a565b600001516001600160a01b0316600d8281548110610d0457634e487b7160e01b600052603260045260246000fd5b60009182526020909120600490910201546001600160a01b03161415610d6957600d8181548110610d4557634e487b7160e01b600052603260045260246000fd5b600091825260208220600260049092020101805491610d6383611d8b565b91905055505b80610d7381611ddd565b915050610cc3565b506000905061077b565b6000805b600d54811015610e3a57826001600160a01b0316600d8281548110610dbe57634e487b7160e01b600052603260045260246000fd5b60009182526020909120600490910201546001600160a01b0316148015610e195750600d8181548110610e0157634e487b7160e01b600052603260045260246000fd5b600091825260209091206003600490920201015460ff165b15610e2857600191505061077b565b80610e3281611ddd565b915050610d89565b50600092915050565b60035481565b600d54156108375760005b600d5481116109fa57600d805480610e7c57634e487b7160e01b600052603160045260246000fd5b60008281526020812060046000199093019283020180546001600160a01b0319168155600181018290556002810191909155600301805460ff19169055905580610ec581611ddd565b915050610e54565b6060600e805480602002602001604051908101604052809291908181526020018280548015610f2557602002820191906000526020600020905b81546001600160a01b03168152600190910190602001808311610f07575b5050505050905090565b600580548190610f3e90611da2565b80601f0160208091040260200160405190810160405280929190818152602001828054610f6a90611da2565b8015610fb75780601f10610f8c57610100808354040283529160200191610fb7565b820191906000526020600020905b815481529060010190602001808311610f9a57829003601f168201915b505050505090806001015490806002015490806006018054610fd890611da2565b80601f016020809104026020016040519081016040528092919081815260200182805461100490611da2565b80156110515780601f1061102657610100808354040283529160200191611051565b820191906000526020600020905b81548152906001019060200180831161103457829003601f168201915b5050506007909301549192505060ff8082169161010090041686565b61107561148f565b6001600160a01b03166110866109fd565b6001600160a01b0316146110ac5760405162461bcd60e51b815260040161052c90611bd0565b600c805461ff001981166101009182900460ff1615909102179055565b60015481565b6110d76115e6565b60056040518060e00160405290816000820180546110f490611da2565b80601f016020809104026020016040519081016040528092919081815260200182805461112090611da2565b801561116d5780601f106111425761010080835404028352916020019161116d565b820191906000526020600020905b81548152906001019060200180831161115057829003601f168201915b50505050508152602001600182015481526020016002820154815260200160038201600380602002604051908101604052809291906000905b828210156112495783820180546111bc90611da2565b80601f01602080910402602001604051908101604052809291908181526020018280546111e890611da2565b80156112355780601f1061120a57610100808354040283529160200191611235565b820191906000526020600020905b81548152906001019060200180831161121857829003601f168201915b5050505050815260200190600101906111a6565b50505050815260200160068201805461126190611da2565b80601f016020809104026020016040519081016040528092919081815260200182805461128d90611da2565b80156112da5780601f106112af576101008083540402835291602001916112da565b820191906000526020600020905b8154815290600101906020018083116112bd57829003601f168201915b50505091835250506007919091015460ff80821615156020840152610100909104161515604090910152905090565b61131161148f565b6001600160a01b03166113226109fd565b6001600160a01b0316146113485760405162461bcd60e51b815260040161052c90611bd0565b6040805160e0810182528581526002546020808301919091529181018590526060810184905260808101839052600060a0820152600160c08201528551909160059161139991839190890190611516565b50602082015160018201556040820151600282015560608201516113c3906003808401919061159a565b50608082015180516113df916006840191602090910190611516565b5060a08201516007909101805460c09093015115156101000261ff001992151560ff19909416939093179190911691909117905561141b610e49565b50505050565b61142961148f565b6001600160a01b031661143a6109fd565b6001600160a01b0316146114605760405162461bcd60e51b815260040161052c90611bd0565b6001600160a01b0381166114865760405162461bcd60e51b815260040161052c90611ae7565b6109fa81611493565b3390565b600080546001600160a01b038381166001600160a01b0319831681178455604051919092169283917f8be0079c531659141344cd1fd0a4f28419497f9722a3daafe3b4186f6b6457e09190a35050565b604051806080016040528060006001600160a01b0316815260200160008152602001600081526020016000151581525090565b82805461152290611da2565b90600052602060002090601f016020900481019282611544576000855561158a565b82601f1061155d57805160ff191683800117855561158a565b8280016001018555821561158a579182015b8281111561158a57825182559160200191906001019061156f565b50611596929150611628565b5090565b82600381019282156115da579160200282015b828111156115da57825180516115ca918491602090910190611516565b50916020019190600101906115ad565b5061159692915061163d565b6040518060e0016040528060608152602001600081526020016000815260200161160e61165a565b815260606020820181905260006040830181905291015290565b5b808211156115965760008155600101611629565b808211156115965760006116518282611681565b5060010161163d565b60405180606001604052806003905b60608152602001906001900390816116695790505090565b50805461168d90611da2565b6000825580601f1061169f57506109fa565b601f0160209004906000526020600020908101906109fa9190611628565b600082601f8301126116cd578081fd5b813567ffffffffffffffff8111156116e7576116e7611e0e565b6116fa601f8201601f1916602001611d22565b81815284602083860101111561170e578283fd5b816020850160208301379081016020019190915292915050565b600060208284031215611739578081fd5b81356001600160a01b038116811461174f578182fd5b9392505050565b600060208284031215611767578081fd5b813567ffffffffffffffff81111561177d578182fd5b611789848285016116bd565b949350505050565b600080600080608085870312156117a6578283fd5b843567ffffffffffffffff808211156117bd578485fd5b6117c9888389016116bd565b9550602091508187013594506040870135818111156117e6578485fd5b8701601f810189136117f6578485fd5b6118006060611d22565b8082875b600381101561182c5761181a8d833587016116bd565b84529286019290860190600101611804565b509096505050506060870135915080821115611846578283fd5b50611853878288016116bd565b91505092959194509250565b600060208284031215611870578081fd5b5035919050565b15159052565b60008151808452611895816020860160208601611d5f565b601f01601f19169290920160200192915050565b80516001600160a01b0316825260208082015190830152604080820151908301526060908101511515910152565b600082516118e9818460208701611d5f565b9190910192915050565b815460009081906002810460018083168061190f57607f831692505b602080841082141561192f57634e487b7160e01b87526022600452602487fd5b818015611943576001811461195457611980565b60ff19861689528489019650611980565b61195d8a611d53565b885b868110156119785781548b82015290850190830161195f565b505084890196505b509498975050505050505050565b6001600160a01b0391909116815260200190565b6001600160a01b03949094168452602084019290925260408301521515606082015260800190565b6020808252825182820181905260009190848201906040850190845b81811015611a0b5783516001600160a01b0316835292840192918401916001016119e6565b50909695505050505050565b6020808252825182820181905260009190848201906040850190845b81811015611a0b57611a468385516118a9565b9284019260809290920191600101611a33565b901515815260200190565b600060c08252611a7760c083018961187d565b8760208401528660408401528281036060840152611a95818761187d565b9415156080840152505090151560a090910152949350505050565b6020808252601b908201527f4d415449432076616c75652073656e74206e6f742076616c6964210000000000604082015260600190565b60208082526026908201527f4f776e61626c653a206e6577206f776e657220697320746865207a65726f206160408201526564647265737360d01b606082015260800190565b60208082526010908201526f55736572206e6f74206a6f696e65642160801b604082015260600190565b60208082526017908201527f5573657220697320616c7265616479206a6f696e656421000000000000000000604082015260600190565b60208082526022908201527f5573657220686173206e6f7420616e7377657220636f756e742c20656e6f7567604082015261682160f01b606082015260800190565b6020808252818101527f4f776e61626c653a2063616c6c6572206973206e6f7420746865206f776e6572604082015260600190565b6020808252601a908201527f4368616c6c656e6765206e6f7420737461727465642079657421000000000000604082015260600190565b60006020808352835160e082850152611c5961010085018261187d565b9050818501516040850152604085015160608501526060850151601f19808684030160808701528283905060608401865b6003811015611cb5578582038352611ca382865161187d565b94870194928701929150600101611c8a565b5060808901519550828882030160a0890152611cd1818761187d565b9550505050505060a0840151611cea60c0850182611877565b5060c0840151611cfd60e0850182611877565b509392505050565b60808101611d1382846118a9565b92915050565b90815260200190565b604051601f8201601f1916810167ffffffffffffffff81118282101715611d4b57611d4b611e0e565b604052919050565b60009081526020902090565b60005b83811015611d7a578181015183820152602001611d62565b8381111561141b5750506000910152565b600081611d9a57611d9a611df8565b506000190190565b600281046001821680611db657607f821691505b60208210811415611dd757634e487b7160e01b600052602260045260246000fd5b50919050565b6000600019821415611df157611df1611df8565b5060010190565b634e487b7160e01b600052601160045260246000fd5b634e487b7160e01b600052604160045260246000fdfea264697066735822122082050643c024626cf73c1282a746f9bc5754a0c319c85e529c62895c8099181164736f6c63430008010033",
  "immutableReferences": {},
  "source": "// SPDX-License-Identifier: GPL-3.0\r\n\r\npragma solidity ^0.8.0;\r\n\r\nimport \"@openzeppelin/contracts/access/Ownable.sol\";\r\n\r\ncontract SmartContract is Ownable{\r\n\r\n    struct Question{\r\n        string qDesc;\r\n        uint qPrize;//must be wei\r\n        uint qDate;\r\n        string[3] qHints;\r\n        string qAnswer;\r\n        bool qState;\r\n        bool qWait;\r\n    }\r\n\r\n    struct User{\r\n        address uWallet;\r\n        uint uHintCount;//0->3\r\n        uint uAnswerCount;//2->0\r\n        bool isJoined;\r\n    }\r\n\r\n    uint public challengeCost = 0.0001 ether;\r\n    uint public challengePrize = 0.0002 ether;\r\n    uint public challengeAnswerCount = 2;\r\n    uint public waitUserCount = 2;\r\n    \r\n    Question public newQuestion;\r\n    User[] public Users;\r\n    //mapping(address => User) ParticipantMap;\r\n    address[] public Winners;\r\n\r\n    //Creates Question\r\n    function createQuestion(\r\n        string memory _desc, \r\n        uint _date, \r\n        string[3] memory _hints,\r\n        string memory _answer) public onlyOwner()\r\n    {\r\n        newQuestion = Question(_desc, challengePrize, _date, _hints, _answer, false, true);\r\n\r\n        clearUsers();\r\n    }\r\n\r\n    function getQuestion() public view returns(Question memory)\r\n    {\r\n        return newQuestion;\r\n    }\r\n\r\n    function getUsers() public view returns(User[] memory)\r\n    {\r\n        return Users;\r\n    }\r\n\r\n    function getWinners() public view returns(address[] memory)\r\n    {\r\n        return Winners;\r\n    }\r\n\r\n    function clearUsers() public {\r\n        //If users exist, clean up\r\n        if(Users.length > 0){\r\n            for(uint i=0;i<=Users.length;i++){\r\n                Users.pop();\r\n            }\r\n        }\r\n    }\r\n    //Joins Challenge\r\n    function joinChallenge() public payable\r\n    {\r\n        //Is challenge started or waiting participant?\r\n        require((newQuestion.qState && !newQuestion.qWait) || (!newQuestion.qState && newQuestion.qWait), \"Challenge not started yet!\");\r\n        //Is Participant exist?\r\n        require(!checkParticipant(msg.sender).isJoined, \"User is already joined!\");\r\n        require(msg.value >= challengeCost, \"MATIC value sent not valid!\");\r\n\r\n        User memory newUser = User(msg.sender, 0, challengeAnswerCount, true);\r\n        Users.push(newUser);\r\n\r\n        if(Users.length >= waitUserCount){\r\n            newQuestion.qState = true;\r\n            newQuestion.qWait = false;\r\n        }\r\n    }\r\n    \r\n    //Checks Answer\r\n    function checkAnswer(string memory _answer) public payable returns(bool)\r\n    {   \r\n        //Is challenge started or waiting participant?\r\n        require(newQuestion.qState && !newQuestion.qWait, \"Challenge not started yet!\");\r\n        //Is Participant exist?\r\n        require(checkParticipant(msg.sender).isJoined, \"User not joined!\");\r\n        require(checkParticipant(msg.sender).uAnswerCount > 0, \"User has not answer count, enough!\");\r\n\r\n\r\n        //If answer true, stop the challenge and send the coin to winner\r\n        if(keccak256(abi.encodePacked(newQuestion.qAnswer)) == keccak256(abi.encodePacked(_answer)))\r\n        {\r\n            //Sending prize to winner\r\n            payable(msg.sender).transfer(newQuestion.qPrize);//0,00001\r\n\r\n            //Challenge is ending\r\n            newQuestion.qDesc = \"\";\r\n            newQuestion.qPrize = 0;\r\n            newQuestion.qDate = 0;\r\n            newQuestion. qHints = [\"\",\"\",\"\"];\r\n            newQuestion.qAnswer = \"\";\r\n            newQuestion.qState = false;\r\n            newQuestion.qWait = false;\r\n\r\n            //Participants cleaning\r\n            clearUsers();\r\n\r\n            //Only the last 10 winner storing\r\n            if(Winners.length == 10){\r\n                for(uint i=0;i<Winners.length;i++)\r\n                    Winners.pop();\r\n            }\r\n            Winners.push(msg.sender);\r\n            return true;   \r\n        }\r\n        else{\r\n            //Decreasing msg.sender answer count\r\n            for(uint i=0;i<Users.length;i++){\r\n                if(Users[i].uWallet == checkParticipant(msg.sender).uWallet)\r\n                    Users[i].uAnswerCount--;\r\n            }\r\n            return false;\r\n        }\r\n    }\r\n\r\n    function checkParticipant(address _userAddress) public view returns(User memory)\r\n    {\r\n        User memory user;\r\n        for(uint i=0; i<Users.length; i++)\r\n        {\r\n            //If user exist and joined\r\n            if(Users[i].uWallet == _userAddress && Users[i].isJoined)\r\n                user = Users[i];\r\n        }\r\n        return user;\r\n    }\r\n\r\n    function isUserJoined(address _userAddress) public view returns(bool){\r\n        for(uint i=0; i<Users.length; i++)\r\n        {\r\n            //If user exist and joined\r\n            if(Users[i].uWallet == _userAddress && Users[i].isJoined)\r\n                return true;\r\n        }\r\n        return false;\r\n    }\r\n    \r\n    //Parameter type is must be wei\r\n    function withdraw(uint _amount) public onlyOwner() {\r\n        payable(msg.sender).transfer(_amount);\r\n    }\r\n\r\n    /*Set Functions*/\r\n    function changeStartedState() public onlyOwner()\r\n    {\r\n        newQuestion.qState = !newQuestion.qState;\r\n    }\r\n\r\n    function changeWaitingState() public onlyOwner()\r\n    {\r\n        newQuestion.qWait = !newQuestion.qWait;\r\n    }\r\n\r\n    function setChallengeCost(uint _newCost) public onlyOwner(){\r\n        challengeCost = _newCost;\r\n    }\r\n\r\n    function setAnswerCount(uint _newCount) public onlyOwner(){\r\n        challengeAnswerCount = _newCount;\r\n    }\r\n\r\n    function setWaitUserCount(uint _newCount) public onlyOwner(){\r\n        waitUserCount = _newCount;\r\n    }\r\n    /*Set Functions END*/\r\n}",
  "sourcePath": "C:\\Users\\DELL\\Desktop\\dapp-test-app\\contracts\\SmartContract.sol",
  "compiler": {
    "name": "solc",
    "version": "0.8.1+commit.df193b15.Emscripten.clang"
  },
  "schemaVersion": "3.4.5",
  "updatedAt": "2022-04-18T08:52:30.534Z",
  "networkType": "ethereum",
  "devdoc": {
    "kind": "dev",
    "methods": {
      "owner()": {
        "details": "Returns the address of the current owner."
      },
      "renounceOwnership()": {
        "details": "Leaves the contract without owner. It will not be possible to call `onlyOwner` functions anymore. Can only be called by the current owner. NOTE: Renouncing ownership will leave the contract without an owner, thereby removing any functionality that is only available to the owner."
      },
      "transferOwnership(address)": {
        "details": "Transfers ownership of the contract to a new account (`newOwner`). Can only be called by the current owner."
      }
    },
    "version": 1
  },
  "userdoc": {
    "kind": "user",
    "methods": {},
    "version": 1
  }
}