{
  "contractName": "SmartContract",
  "abi": [
    {
      "anonymous": false,
      "inputs": [
        {
          "indexed": true,
          "internalType": "address",
          "name": "previousOwner",
          "type": "address"
        },
        {
          "indexed": true,
          "internalType": "address",
          "name": "newOwner",
          "type": "address"
        }
      ],
      "name": "OwnershipTransferred",
      "type": "event"
    },
    {
      "inputs": [
        {
          "internalType": "uint256",
          "name": "",
          "type": "uint256"
        }
      ],
      "name": "Users",
      "outputs": [
        {
          "internalType": "address",
          "name": "uWallet",
          "type": "address"
        },
        {
          "internalType": "uint256",
          "name": "uHintCount",
          "type": "uint256"
        },
        {
          "internalType": "uint256",
          "name": "uAnswerCount",
          "type": "uint256"
        },
        {
          "internalType": "bool",
          "name": "isJoined",
          "type": "bool"
        }
      ],
      "stateMutability": "view",
      "type": "function",
      "constant": true
    },
    {
      "inputs": [
        {
          "internalType": "uint256",
          "name": "",
          "type": "uint256"
        }
      ],
      "name": "Winners",
      "outputs": [
        {
          "internalType": "address",
          "name": "",
          "type": "address"
        }
      ],
      "stateMutability": "view",
      "type": "function",
      "constant": true
    },
    {
      "inputs": [],
      "name": "challengeAnswerCount",
      "outputs": [
        {
          "internalType": "uint256",
          "name": "",
          "type": "uint256"
        }
      ],
      "stateMutability": "view",
      "type": "function",
      "constant": true
    },
    {
      "inputs": [],
      "name": "challengeCost",
      "outputs": [
        {
          "internalType": "uint256",
          "name": "",
          "type": "uint256"
        }
      ],
      "stateMutability": "view",
      "type": "function",
      "constant": true
    },
    {
      "inputs": [],
      "name": "newQuestion",
      "outputs": [
        {
          "internalType": "string",
          "name": "qDesc",
          "type": "string"
        },
        {
          "internalType": "uint256",
          "name": "qPrize",
          "type": "uint256"
        },
        {
          "internalType": "uint256",
          "name": "qDate",
          "type": "uint256"
        },
        {
          "internalType": "string",
          "name": "qAnswer",
          "type": "string"
        },
        {
          "internalType": "bool",
          "name": "qState",
          "type": "bool"
        },
        {
          "internalType": "bool",
          "name": "qWait",
          "type": "bool"
        }
      ],
      "stateMutability": "view",
      "type": "function",
      "constant": true
    },
    {
      "inputs": [],
      "name": "owner",
      "outputs": [
        {
          "internalType": "address",
          "name": "",
          "type": "address"
        }
      ],
      "stateMutability": "view",
      "type": "function",
      "constant": true
    },
    {
      "inputs": [],
      "name": "renounceOwnership",
      "outputs": [],
      "stateMutability": "nonpayable",
      "type": "function"
    },
    {
      "inputs": [
        {
          "internalType": "address",
          "name": "newOwner",
          "type": "address"
        }
      ],
      "name": "transferOwnership",
      "outputs": [],
      "stateMutability": "nonpayable",
      "type": "function"
    },
    {
      "inputs": [],
      "name": "waitUserCount",
      "outputs": [
        {
          "internalType": "uint256",
          "name": "",
          "type": "uint256"
        }
      ],
      "stateMutability": "view",
      "type": "function",
      "constant": true
    },
    {
      "inputs": [
        {
          "internalType": "string",
          "name": "_desc",
          "type": "string"
        },
        {
          "internalType": "uint256",
          "name": "_prize",
          "type": "uint256"
        },
        {
          "internalType": "uint256",
          "name": "_date",
          "type": "uint256"
        },
        {
          "internalType": "string[3]",
          "name": "_hints",
          "type": "string[3]"
        },
        {
          "internalType": "string",
          "name": "_answer",
          "type": "string"
        }
      ],
      "name": "createQuestion",
      "outputs": [],
      "stateMutability": "nonpayable",
      "type": "function"
    },
    {
      "inputs": [],
      "name": "getQuestion",
      "outputs": [
        {
          "components": [
            {
              "internalType": "string",
              "name": "qDesc",
              "type": "string"
            },
            {
              "internalType": "uint256",
              "name": "qPrize",
              "type": "uint256"
            },
            {
              "internalType": "uint256",
              "name": "qDate",
              "type": "uint256"
            },
            {
              "internalType": "string[3]",
              "name": "qHints",
              "type": "string[3]"
            },
            {
              "internalType": "string",
              "name": "qAnswer",
              "type": "string"
            },
            {
              "internalType": "bool",
              "name": "qState",
              "type": "bool"
            },
            {
              "internalType": "bool",
              "name": "qWait",
              "type": "bool"
            }
          ],
          "internalType": "struct SmartContract.Question",
          "name": "",
          "type": "tuple"
        }
      ],
      "stateMutability": "view",
      "type": "function",
      "constant": true
    },
    {
      "inputs": [],
      "name": "getUsers",
      "outputs": [
        {
          "components": [
            {
              "internalType": "address",
              "name": "uWallet",
              "type": "address"
            },
            {
              "internalType": "uint256",
              "name": "uHintCount",
              "type": "uint256"
            },
            {
              "internalType": "uint256",
              "name": "uAnswerCount",
              "type": "uint256"
            },
            {
              "internalType": "bool",
              "name": "isJoined",
              "type": "bool"
            }
          ],
          "internalType": "struct SmartContract.User[]",
          "name": "",
          "type": "tuple[]"
        }
      ],
      "stateMutability": "view",
      "type": "function",
      "constant": true
    },
    {
      "inputs": [],
      "name": "joinChallenge",
      "outputs": [],
      "stateMutability": "payable",
      "type": "function",
      "payable": true
    },
    {
      "inputs": [
        {
          "internalType": "string",
          "name": "_answer",
          "type": "string"
        }
      ],
      "name": "checkAnswer",
      "outputs": [],
      "stateMutability": "payable",
      "type": "function",
      "payable": true
    },
    {
      "inputs": [
        {
          "internalType": "address",
          "name": "_userAddress",
          "type": "address"
        }
      ],
      "name": "checkParticipant",
      "outputs": [
        {
          "components": [
            {
              "internalType": "address",
              "name": "uWallet",
              "type": "address"
            },
            {
              "internalType": "uint256",
              "name": "uHintCount",
              "type": "uint256"
            },
            {
              "internalType": "uint256",
              "name": "uAnswerCount",
              "type": "uint256"
            },
            {
              "internalType": "bool",
              "name": "isJoined",
              "type": "bool"
            }
          ],
          "internalType": "struct SmartContract.User",
          "name": "",
          "type": "tuple"
        }
      ],
      "stateMutability": "view",
      "type": "function",
      "constant": true
    },
    {
      "inputs": [
        {
          "internalType": "address",
          "name": "_userAddress",
          "type": "address"
        }
      ],
      "name": "isUserJoined",
      "outputs": [
        {
          "internalType": "bool",
          "name": "",
          "type": "bool"
        }
      ],
      "stateMutability": "view",
      "type": "function",
      "constant": true
    },
    {
      "inputs": [
        {
          "internalType": "uint256",
          "name": "_amount",
          "type": "uint256"
        }
      ],
      "name": "withdraw",
      "outputs": [],
      "stateMutability": "nonpayable",
      "type": "function"
    },
    {
      "inputs": [],
      "name": "changeStartedState",
      "outputs": [],
      "stateMutability": "nonpayable",
      "type": "function"
    },
    {
      "inputs": [],
      "name": "changeWaitingState",
      "outputs": [],
      "stateMutability": "nonpayable",
      "type": "function"
    },
    {
      "inputs": [
        {
          "internalType": "uint256",
          "name": "_newCost",
          "type": "uint256"
        }
      ],
      "name": "setChallengeCost",
      "outputs": [],
      "stateMutability": "nonpayable",
      "type": "function"
    },
    {
      "inputs": [
        {
          "internalType": "uint256",
          "name": "_newCount",
          "type": "uint256"
        }
      ],
      "name": "setAnswerCount",
      "outputs": [],
      "stateMutability": "nonpayable",
      "type": "function"
    },
    {
      "inputs": [
        {
          "internalType": "uint256",
          "name": "_newCount",
          "type": "uint256"
        }
      ],
      "name": "setWaitUserCount",
      "outputs": [],
      "stateMutability": "nonpayable",
      "type": "function"
    }
  ],
  "bytecode": "0x608060405266470de4df820000600155600280556003805534801561002357600080fd5b5061003461002f610039565b61003d565b61008d565b3390565b600080546001600160a01b038381166001600160a01b0319831681178455604051919092169283917f8be0079c531659141344cd1fd0a4f28419497f9722a3daafe3b4186f6b6457e09190a35050565b611d3a8061009c6000396000f3fe6080604052600436106101345760003560e01c80638942d0b3116100ab578063bb6f24d21161006f578063bb6f24d214610339578063e10e20ab1461034e578063ebc50c3a14610375578063eda1970b1461038a578063eff38f921461039f578063f2fde38b146103c157610134565b80638942d0b3146102bc5780638da5cb5b146102c4578063960b278a146102d9578063b52bd9c6146102f9578063b5c210ca1461030c57610134565b80634ca91618116100fd5780634ca91618146101ed5780635b5731861461020d5780636103d9151461023a578063653198a114610267578063715018a61461028757806374f8fa571461029c57610134565b8062ce8e3e146101395780631737122c146101645780631e98fd1c1461017b5780632e1a7d4d146101ab57806335ea3925146101cb575b600080fd5b34801561014557600080fd5b5061014e6103e1565b60405161015b91906118e7565b60405180910390f35b34801561017057600080fd5b50610179610470565b005b34801561018757600080fd5b5061019b61019636600461177c565b6104cc565b60405161015b94939291906118bf565b3480156101b757600080fd5b506101796101c636600461177c565b610513565b3480156101d757600080fd5b506101e0610583565b60405161015b9190611bf5565b3480156101f957600080fd5b5061017961020836600461177c565b610589565b34801561021957600080fd5b5061022d61022836600461163b565b6105cd565b60405161015b9190611be1565b34801561024657600080fd5b5061025a61025536600461177c565b610703565b60405161015b91906118ab565b34801561027357600080fd5b5061017961028236600461177c565b61072d565b34801561029357600080fd5b50610179610771565b3480156102a857600080fd5b506101796102b73660046116a4565b6107bc565b6101796108c9565b3480156102d057600080fd5b5061025a610a8d565b3480156102e557600080fd5b506101796102f436600461177c565b610a9c565b610179610307366004611669565b610ae0565b34801561031857600080fd5b5061032c61032736600461163b565b610e96565b60405161015b9190611935565b34801561034557600080fd5b506101e0610f54565b34801561035a57600080fd5b50610363610f5a565b60405161015b96959493929190611940565b34801561038157600080fd5b50610179611098565b34801561039657600080fd5b506101e06110f4565b3480156103ab57600080fd5b506103b46110fa565b60405161015b9190611b18565b3480156103cd57600080fd5b506101796103dc36600461163b565b611334565b6060600c805480602002602001604051908101604052809291908181526020016000905b82821015610467576000848152602090819020604080516080810182526004860290920180546001600160a01b03168352600180820154848601526002820154928401929092526003015460ff16151560608301529083529092019101610405565b50505050905090565b6104786113a2565b6001600160a01b0316610489610a8d565b6001600160a01b0316146104b85760405162461bcd60e51b81526004016104af90611aac565b60405180910390fd5b600b805460ff19811660ff90911615179055565b600c81815481106104dc57600080fd5b600091825260209091206004909102018054600182015460028301546003909301546001600160a01b039092169350919060ff1684565b61051b6113a2565b6001600160a01b031661052c610a8d565b6001600160a01b0316146105525760405162461bcd60e51b81526004016104af90611aac565b604051339082156108fc029083906000818181858888f1935050505015801561057f573d6000803e3d6000fd5b5050565b60035481565b6105916113a2565b6001600160a01b03166105a2610a8d565b6001600160a01b0316146105c85760405162461bcd60e51b81526004016104af90611aac565b600155565b6105d56113f6565b6105dd6113f6565b60005b600c548110156106fa57836001600160a01b0316600c828154811061061557634e487b7160e01b600052603260045260246000fd5b60009182526020909120600490910201546001600160a01b03161480156106705750600c818154811061065857634e487b7160e01b600052603260045260246000fd5b600091825260209091206003600490920201015460ff165b156106e857600c818154811061069657634e487b7160e01b600052603260045260246000fd5b600091825260209182902060408051608081018252600490930290910180546001600160a01b0316835260018101549383019390935260028301549082015260039091015460ff161515606082015291505b806106f281611cbd565b9150506105e0565b5090505b919050565b600d818154811061071357600080fd5b6000918252602090912001546001600160a01b0316905081565b6107356113a2565b6001600160a01b0316610746610a8d565b6001600160a01b03161461076c5760405162461bcd60e51b81526004016104af90611aac565b600355565b6107796113a2565b6001600160a01b031661078a610a8d565b6001600160a01b0316146107b05760405162461bcd60e51b81526004016104af90611aac565b6107ba60006113a6565b565b6107c46113a2565b6001600160a01b03166107d5610a8d565b6001600160a01b0316146107fb5760405162461bcd60e51b81526004016104af90611aac565b6040805160e08101825286815260208082018790529181018590526060810184905260808101839052600060a0820152600160c082015286519091600491610848918391908a0190611429565b506020820151600182015560408201516002820155606082015161087290600380840191906114ad565b506080820151805161088e916006840191602090910190611429565b5060a08201516007909101805460c09093015115156101000261ff001992151560ff1990941693909317919091169190911790555050505050565b600b5460ff1680156108e35750600b54610100900460ff16155b806109035750600b5460ff161580156109035750600b54610100900460ff165b61091f5760405162461bcd60e51b81526004016104af90611ae1565b610928336105cd565b60600151156109495760405162461bcd60e51b81526004016104af90611a33565b60015434101561096b5760405162461bcd60e51b81526004016104af9061198c565b60408051608081018252338152600060208201818152600254938301938452600160608401818152600c805492830181559384905284517fdf6966c971051c3d54ec59162606531493a51404a002842f56009d7e5cf4a8c7600490930292830180546001600160a01b0319166001600160a01b0390921691909117905591517fdf6966c971051c3d54ec59162606531493a51404a002842f56009d7e5cf4a8c882015593517fdf6966c971051c3d54ec59162606531493a51404a002842f56009d7e5cf4a8c9850155517fdf6966c971051c3d54ec59162606531493a51404a002842f56009d7e5cf4a8ca909301805460ff1916931515939093179092556003549154909111610a8a57600b805461ff001960ff199091166001171690555b50565b6000546001600160a01b031690565b610aa46113a2565b6001600160a01b0316610ab5610a8d565b6001600160a01b031614610adb5760405162461bcd60e51b81526004016104af90611aac565b600255565b600b5460ff168015610afa5750600b54610100900460ff16155b80610b1a5750600b5460ff16158015610b1a5750600b54610100900460ff165b610b365760405162461bcd60e51b81526004016104af90611ae1565b610b3f336105cd565b60600151610b5f5760405162461bcd60e51b81526004016104af90611a09565b6000610b6a336105cd565b6040015111610b8b5760405162461bcd60e51b81526004016104af90611a6a565b80604051602001610b9c91906117f4565b60408051601f1981840301815290829052805160209182012091610bc391600a9101611810565b604051602081830303815290604052805190602001201415610ddb57600554604051339180156108fc02916000818181858888f19350505050158015610c0d573d6000803e3d6000fd5b50604080516020810191829052600090819052610c2c91600491611429565b5060006005819055600681905560408051608081018252606081018381528152815160208181018452848252808301919091528251908101835292835290810191909152610c7e9060079060036114ad565b50604080516020810191829052600090819052610c9d91600a91611429565b50600b805461ffff1916905560005b600c54811015610d2657600c805480610cd557634e487b7160e01b600052603160045260246000fd5b60008281526020812060046000199093019283020180546001600160a01b0319168155600181018290556002810191909155600301805460ff19169055905580610d1e81611cbd565b915050610cac565b50600d54600a1415610d945760005b600d54811015610d9257600d805480610d5e57634e487b7160e01b600052603160045260246000fd5b600082815260209020810160001990810180546001600160a01b031916905501905580610d8a81611cbd565b915050610d35565b505b600d80546001810182556000919091527fd7b6990105719101dabeb77144f2a3385c8033acd3af97e9423a695e81ad1eb50180546001600160a01b03191633179055610a8a565b60005b600c5481101561057f57610df1336105cd565b600001516001600160a01b0316600c8281548110610e1f57634e487b7160e01b600052603260045260246000fd5b60009182526020909120600490910201546001600160a01b03161415610e8457600c8181548110610e6057634e487b7160e01b600052603260045260246000fd5b600091825260208220600260049092020101805491610e7e83611c6b565b91905055505b80610e8e81611cbd565b915050610dde565b6000805b600c54811015610f4b57826001600160a01b0316600c8281548110610ecf57634e487b7160e01b600052603260045260246000fd5b60009182526020909120600490910201546001600160a01b0316148015610f2a5750600c8181548110610f1257634e487b7160e01b600052603260045260246000fd5b600091825260209091206003600490920201015460ff165b15610f395760019150506106fe565b80610f4381611cbd565b915050610e9a565b50600092915050565b60025481565b600480548190610f6990611c82565b80601f0160208091040260200160405190810160405280929190818152602001828054610f9590611c82565b8015610fe25780601f10610fb757610100808354040283529160200191610fe2565b820191906000526020600020905b815481529060010190602001808311610fc557829003601f168201915b50505050509080600101549080600201549080600601805461100390611c82565b80601f016020809104026020016040519081016040528092919081815260200182805461102f90611c82565b801561107c5780601f106110515761010080835404028352916020019161107c565b820191906000526020600020905b81548152906001019060200180831161105f57829003601f168201915b5050506007909301549192505060ff8082169161010090041686565b6110a06113a2565b6001600160a01b03166110b1610a8d565b6001600160a01b0316146110d75760405162461bcd60e51b81526004016104af90611aac565b600b805461ff001981166101009182900460ff1615909102179055565b60015481565b6111026114f9565b60046040518060e001604052908160008201805461111f90611c82565b80601f016020809104026020016040519081016040528092919081815260200182805461114b90611c82565b80156111985780601f1061116d57610100808354040283529160200191611198565b820191906000526020600020905b81548152906001019060200180831161117b57829003601f168201915b50505050508152602001600182015481526020016002820154815260200160038201600380602002604051908101604052809291906000905b828210156112745783820180546111e790611c82565b80601f016020809104026020016040519081016040528092919081815260200182805461121390611c82565b80156112605780601f1061123557610100808354040283529160200191611260565b820191906000526020600020905b81548152906001019060200180831161124357829003601f168201915b5050505050815260200190600101906111d1565b50505050815260200160068201805461128c90611c82565b80601f01602080910402602001604051908101604052809291908181526020018280546112b890611c82565b80156113055780601f106112da57610100808354040283529160200191611305565b820191906000526020600020905b8154815290600101906020018083116112e857829003601f168201915b50505091835250506007919091015460ff80821615156020840152610100909104161515604090910152905090565b61133c6113a2565b6001600160a01b031661134d610a8d565b6001600160a01b0316146113735760405162461bcd60e51b81526004016104af90611aac565b6001600160a01b0381166113995760405162461bcd60e51b81526004016104af906119c3565b610a8a816113a6565b3390565b600080546001600160a01b038381166001600160a01b0319831681178455604051919092169283917f8be0079c531659141344cd1fd0a4f28419497f9722a3daafe3b4186f6b6457e09190a35050565b604051806080016040528060006001600160a01b0316815260200160008152602001600081526020016000151581525090565b82805461143590611c82565b90600052602060002090601f016020900481019282611457576000855561149d565b82601f1061147057805160ff191683800117855561149d565b8280016001018555821561149d579182015b8281111561149d578251825591602001919060010190611482565b506114a992915061153b565b5090565b82600381019282156114ed579160200282015b828111156114ed57825180516114dd918491602090910190611429565b50916020019190600101906114c0565b506114a9929150611550565b6040518060e0016040528060608152602001600081526020016000815260200161152161156d565b815260606020820181905260006040830181905291015290565b5b808211156114a9576000815560010161153c565b808211156114a95760006115648282611594565b50600101611550565b60405180606001604052806003905b606081526020019060019003908161157c5790505090565b5080546115a090611c82565b6000825580601f106115b25750610a8a565b601f016020900490600052602060002090810190610a8a919061153b565b600082601f8301126115e0578081fd5b813567ffffffffffffffff8111156115fa576115fa611cee565b61160d601f8201601f1916602001611bfe565b818152846020838601011115611621578283fd5b816020850160208301379081016020019190915292915050565b60006020828403121561164c578081fd5b81356001600160a01b0381168114611662578182fd5b9392505050565b60006020828403121561167a578081fd5b813567ffffffffffffffff811115611690578182fd5b61169c848285016115d0565b949350505050565b600080600080600060a086880312156116bb578081fd5b853567ffffffffffffffff808211156116d2578283fd5b6116de89838a016115d0565b96506020915081880135955060408801359450606088013581811115611702578384fd5b8801601f81018a13611712578384fd5b61171c6060611bfe565b8082865b6003811015611748576117368e833587016115d0565b84529286019290860190600101611720565b509096505050506080880135915080821115611762578283fd5b5061176f888289016115d0565b9150509295509295909350565b60006020828403121561178d578081fd5b5035919050565b15159052565b600081518084526117b2816020860160208601611c3b565b601f01601f19169290920160200192915050565b80516001600160a01b0316825260208082015190830152604080820151908301526060908101511515910152565b60008251611806818460208701611c3b565b9190910192915050565b815460009081906002810460018083168061182c57607f831692505b602080841082141561184c57634e487b7160e01b87526022600452602487fd5b81801561186057600181146118715761189d565b60ff1986168952848901965061189d565b61187a8a611c2f565b885b868110156118955781548b82015290850190830161187c565b505084890196505b509498975050505050505050565b6001600160a01b0391909116815260200190565b6001600160a01b03949094168452602084019290925260408301521515606082015260800190565b6020808252825182820181905260009190848201906040850190845b81811015611929576119168385516117c6565b9284019260809290920191600101611903565b50909695505050505050565b901515815260200190565b600060c0825261195360c083018961179a565b8760208401528660408401528281036060840152611971818761179a565b9415156080840152505090151560a090910152949350505050565b6020808252601b908201527f4d415449432076616c75652073656e74206e6f742076616c6964210000000000604082015260600190565b60208082526026908201527f4f776e61626c653a206e6577206f776e657220697320746865207a65726f206160408201526564647265737360d01b606082015260800190565b60208082526010908201526f55736572206e6f74206a6f696e65642160801b604082015260600190565b60208082526017908201527f5573657220697320616c7265616479206a6f696e656421000000000000000000604082015260600190565b60208082526022908201527f5573657220686173206e6f7420616e7377657220636f756e742c20656e6f7567604082015261682160f01b606082015260800190565b6020808252818101527f4f776e61626c653a2063616c6c6572206973206e6f7420746865206f776e6572604082015260600190565b6020808252601a908201527f4368616c6c656e6765206e6f7420737461727465642079657421000000000000604082015260600190565b60006020808352835160e082850152611b3561010085018261179a565b9050818501516040850152604085015160608501526060850151601f19808684030160808701528283905060608401865b6003811015611b91578582038352611b7f82865161179a565b94870194928701929150600101611b66565b5060808901519550828882030160a0890152611bad818761179a565b9550505050505060a0840151611bc660c0850182611794565b5060c0840151611bd960e0850182611794565b509392505050565b60808101611bef82846117c6565b92915050565b90815260200190565b604051601f8201601f1916810167ffffffffffffffff81118282101715611c2757611c27611cee565b604052919050565b60009081526020902090565b60005b83811015611c56578181015183820152602001611c3e565b83811115611c65576000848401525b50505050565b600081611c7a57611c7a611cd8565b506000190190565b600281046001821680611c9657607f821691505b60208210811415611cb757634e487b7160e01b600052602260045260246000fd5b50919050565b6000600019821415611cd157611cd1611cd8565b5060010190565b634e487b7160e01b600052601160045260246000fd5b634e487b7160e01b600052604160045260246000fdfea2646970667358221220e0e755654d994658da7aaa80ec5f09f2e57e66fa4e2aae99ad7964ffe0e5634164736f6c63430008010033",
  "immutableReferences": {},
  "source": "// SPDX-License-Identifier: GPL-3.0\r\n\r\npragma solidity ^0.8.0;\r\n\r\nimport \"@openzeppelin/contracts/access/Ownable.sol\";\r\n\r\ncontract SmartContract is Ownable{\r\n\r\n    struct Question{\r\n        string qDesc;\r\n        uint qPrize;//must be wei\r\n        uint qDate;\r\n        string[3] qHints;\r\n        string qAnswer;\r\n        bool qState;\r\n        bool qWait;\r\n    }\r\n\r\n    struct User{\r\n        address uWallet;\r\n        uint uHintCount;//0->3\r\n        uint uAnswerCount;//2->0\r\n        bool isJoined;\r\n    }\r\n\r\n    uint public challengeCost = 0.02 ether;\r\n    uint public challengeAnswerCount = 2;\r\n    uint public waitUserCount = 3;\r\n    \r\n    Question public newQuestion;\r\n    User[] public Users;\r\n    //mapping(address => User) ParticipantMap;\r\n    address[] public Winners;\r\n\r\n    //Creates Question\r\n    function createQuestion(\r\n        string memory _desc, \r\n        uint _prize,\r\n        uint _date, \r\n        string[3] memory _hints,\r\n        string memory _answer) public onlyOwner()\r\n    {\r\n        newQuestion = Question(_desc,_prize,_date,_hints,_answer,false,true);\r\n    }\r\n\r\n    // //Gets Question (for website)\r\n    // function getQuestion() public view returns(string memory, uint, uint, string[3] memory, bool, bool)\r\n    // {\r\n    //     return (newQuestion.qDesc, newQuestion.qPrize, newQuestion.qDate, \r\n    //         newQuestion.qHints, newQuestion.qState, newQuestion.qWait);\r\n    // }\r\n\r\n    function getQuestion() public view returns(Question memory)\r\n    {\r\n        return newQuestion;\r\n    }\r\n\r\n    function getUsers() public view returns(User[] memory)\r\n    {\r\n        return Users;\r\n    }\r\n\r\n    //Joins Challenge\r\n    function joinChallenge() public payable\r\n    {\r\n        //Is challenge started or waiting participant?\r\n        require((newQuestion.qState && !newQuestion.qWait) || (!newQuestion.qState && newQuestion.qWait), \"Challenge not started yet!\");\r\n        //Is Participant exist?\r\n        require(!checkParticipant(msg.sender).isJoined, \"User is already joined!\");\r\n        require(msg.value >= challengeCost, \"MATIC value sent not valid!\");\r\n\r\n        User memory newUser = User(msg.sender, 0, challengeAnswerCount, true);\r\n        Users.push(newUser);\r\n\r\n        if(Users.length >= waitUserCount){\r\n            newQuestion.qState = true;\r\n            newQuestion.qWait = false;\r\n        }\r\n    }\r\n    \r\n    //Checks Answer\r\n    function checkAnswer(string memory _answer) public payable\r\n    {   \r\n        //Is challenge started or waiting participant?\r\n        require((newQuestion.qState && !newQuestion.qWait) || (!newQuestion.qState && newQuestion.qWait), \"Challenge not started yet!\");\r\n        //Is Participant exist?\r\n        require(checkParticipant(msg.sender).isJoined, \"User not joined!\");\r\n        require(checkParticipant(msg.sender).uAnswerCount > 0, \"User has not answer count, enough!\");\r\n\r\n\r\n        //If answer true, stop the challenge and send the coin to winner\r\n        if(keccak256(abi.encodePacked(newQuestion.qAnswer)) == keccak256(abi.encodePacked(_answer)))\r\n        {\r\n            //Sending prize to winner\r\n            payable(msg.sender).transfer(newQuestion.qPrize);\r\n\r\n            //Challenge is ending\r\n            newQuestion.qDesc = \"\";\r\n            newQuestion.qPrize = 0;\r\n            newQuestion.qDate = 0;\r\n            newQuestion. qHints = [\"\",\"\",\"\"];\r\n            newQuestion.qAnswer = \"\";\r\n            newQuestion.qState = false;\r\n            newQuestion.qWait = false;\r\n\r\n            //Participants cleaning\r\n            for(uint i=0;i<Users.length;i++){\r\n                Users.pop();\r\n            }\r\n\r\n            //Only the last 10 winner storing\r\n            if(Winners.length == 10){\r\n                for(uint i=0;i<Winners.length;i++)\r\n                    Winners.pop();\r\n            }\r\n            Winners.push(msg.sender);   \r\n        }\r\n        else{\r\n            //Decreasing msg.sender answer count\r\n            for(uint i=0;i<Users.length;i++){\r\n                if(Users[i].uWallet == checkParticipant(msg.sender).uWallet)\r\n                    Users[i].uAnswerCount--;\r\n            }\r\n        }\r\n    }\r\n\r\n    function checkParticipant(address _userAddress) public view returns(User memory)\r\n    {\r\n        User memory user;\r\n        for(uint i=0; i<Users.length; i++)\r\n        {\r\n            //If user exist and joined\r\n            if(Users[i].uWallet == _userAddress && Users[i].isJoined)\r\n                user = Users[i];\r\n        }\r\n        return user;\r\n    }\r\n\r\n    function isUserJoined(address _userAddress) public view returns(bool){\r\n        for(uint i=0; i<Users.length; i++)\r\n        {\r\n            //If user exist and joined\r\n            if(Users[i].uWallet == _userAddress && Users[i].isJoined)\r\n                return true;\r\n        }\r\n        return false;\r\n    }\r\n    \r\n    //Parameter type is must be wei\r\n    function withdraw(uint _amount) public onlyOwner() {\r\n        payable(msg.sender).transfer(_amount);\r\n    }\r\n\r\n    /*Set Functions*/\r\n    function changeStartedState() public onlyOwner()\r\n    {\r\n        newQuestion.qState = !newQuestion.qState;\r\n    }\r\n\r\n    function changeWaitingState() public onlyOwner()\r\n    {\r\n        newQuestion.qWait = !newQuestion.qWait;\r\n    }\r\n\r\n    function setChallengeCost(uint _newCost) public onlyOwner(){\r\n        challengeCost = _newCost;\r\n    }\r\n\r\n    function setAnswerCount(uint _newCount) public onlyOwner(){\r\n        challengeAnswerCount = _newCount;\r\n    }\r\n\r\n    function setWaitUserCount(uint _newCount) public onlyOwner(){\r\n        waitUserCount = _newCount;\r\n    }\r\n    /*Set Functions END*/\r\n}",
  "sourcePath": "C:\\Users\\DELL\\Desktop\\dapp-test-app\\contracts\\SmartContract.sol",
  "compiler": {
    "name": "solc",
    "version": "0.8.1+commit.df193b15.Emscripten.clang"
  },
  "schemaVersion": "3.4.5",
  "updatedAt": "2022-04-11T13:15:10.852Z",
  "networkType": "ethereum",
  "devdoc": {
    "kind": "dev",
    "methods": {
      "owner()": {
        "details": "Returns the address of the current owner."
      },
      "renounceOwnership()": {
        "details": "Leaves the contract without owner. It will not be possible to call `onlyOwner` functions anymore. Can only be called by the current owner. NOTE: Renouncing ownership will leave the contract without an owner, thereby removing any functionality that is only available to the owner."
      },
      "transferOwnership(address)": {
        "details": "Transfers ownership of the contract to a new account (`newOwner`). Can only be called by the current owner."
      }
    },
    "version": 1
  },
  "userdoc": {
    "kind": "user",
    "methods": {},
    "version": 1
  }
}