{
  "contractName": "SmartContract",
  "abi": [
    {
      "anonymous": false,
      "inputs": [
        {
          "indexed": true,
          "internalType": "address",
          "name": "previousOwner",
          "type": "address"
        },
        {
          "indexed": true,
          "internalType": "address",
          "name": "newOwner",
          "type": "address"
        }
      ],
      "name": "OwnershipTransferred",
      "type": "event"
    },
    {
      "inputs": [
        {
          "internalType": "uint256",
          "name": "",
          "type": "uint256"
        }
      ],
      "name": "Users",
      "outputs": [
        {
          "internalType": "address",
          "name": "uWallet",
          "type": "address"
        },
        {
          "internalType": "uint256",
          "name": "uHintCount",
          "type": "uint256"
        },
        {
          "internalType": "uint256",
          "name": "uAnswerCount",
          "type": "uint256"
        },
        {
          "internalType": "bool",
          "name": "isJoined",
          "type": "bool"
        }
      ],
      "stateMutability": "view",
      "type": "function",
      "constant": true
    },
    {
      "inputs": [
        {
          "internalType": "uint256",
          "name": "",
          "type": "uint256"
        }
      ],
      "name": "Winners",
      "outputs": [
        {
          "internalType": "address",
          "name": "",
          "type": "address"
        }
      ],
      "stateMutability": "view",
      "type": "function",
      "constant": true
    },
    {
      "inputs": [],
      "name": "challengeAnswerCount",
      "outputs": [
        {
          "internalType": "uint256",
          "name": "",
          "type": "uint256"
        }
      ],
      "stateMutability": "view",
      "type": "function",
      "constant": true
    },
    {
      "inputs": [],
      "name": "challengeCost",
      "outputs": [
        {
          "internalType": "uint256",
          "name": "",
          "type": "uint256"
        }
      ],
      "stateMutability": "view",
      "type": "function",
      "constant": true
    },
    {
      "inputs": [],
      "name": "newQuestion",
      "outputs": [
        {
          "internalType": "string",
          "name": "qDesc",
          "type": "string"
        },
        {
          "internalType": "uint256",
          "name": "qPrize",
          "type": "uint256"
        },
        {
          "internalType": "uint256",
          "name": "qDate",
          "type": "uint256"
        },
        {
          "internalType": "string",
          "name": "qAnswer",
          "type": "string"
        },
        {
          "internalType": "bool",
          "name": "qState",
          "type": "bool"
        },
        {
          "internalType": "bool",
          "name": "qWait",
          "type": "bool"
        }
      ],
      "stateMutability": "view",
      "type": "function",
      "constant": true
    },
    {
      "inputs": [],
      "name": "owner",
      "outputs": [
        {
          "internalType": "address",
          "name": "",
          "type": "address"
        }
      ],
      "stateMutability": "view",
      "type": "function",
      "constant": true
    },
    {
      "inputs": [],
      "name": "renounceOwnership",
      "outputs": [],
      "stateMutability": "nonpayable",
      "type": "function"
    },
    {
      "inputs": [
        {
          "internalType": "address",
          "name": "newOwner",
          "type": "address"
        }
      ],
      "name": "transferOwnership",
      "outputs": [],
      "stateMutability": "nonpayable",
      "type": "function"
    },
    {
      "inputs": [],
      "name": "waitUserCount",
      "outputs": [
        {
          "internalType": "uint256",
          "name": "",
          "type": "uint256"
        }
      ],
      "stateMutability": "view",
      "type": "function",
      "constant": true
    },
    {
      "inputs": [
        {
          "internalType": "string",
          "name": "_desc",
          "type": "string"
        },
        {
          "internalType": "uint256",
          "name": "_prize",
          "type": "uint256"
        },
        {
          "internalType": "uint256",
          "name": "_date",
          "type": "uint256"
        },
        {
          "internalType": "string[3]",
          "name": "_hints",
          "type": "string[3]"
        },
        {
          "internalType": "string",
          "name": "_answer",
          "type": "string"
        }
      ],
      "name": "createQuestion",
      "outputs": [],
      "stateMutability": "nonpayable",
      "type": "function"
    },
    {
      "inputs": [],
      "name": "getQuestion",
      "outputs": [
        {
          "components": [
            {
              "internalType": "string",
              "name": "qDesc",
              "type": "string"
            },
            {
              "internalType": "uint256",
              "name": "qPrize",
              "type": "uint256"
            },
            {
              "internalType": "uint256",
              "name": "qDate",
              "type": "uint256"
            },
            {
              "internalType": "string[3]",
              "name": "qHints",
              "type": "string[3]"
            },
            {
              "internalType": "string",
              "name": "qAnswer",
              "type": "string"
            },
            {
              "internalType": "bool",
              "name": "qState",
              "type": "bool"
            },
            {
              "internalType": "bool",
              "name": "qWait",
              "type": "bool"
            }
          ],
          "internalType": "struct SmartContract.Question",
          "name": "",
          "type": "tuple"
        }
      ],
      "stateMutability": "view",
      "type": "function",
      "constant": true
    },
    {
      "inputs": [],
      "name": "getUsers",
      "outputs": [
        {
          "components": [
            {
              "internalType": "address",
              "name": "uWallet",
              "type": "address"
            },
            {
              "internalType": "uint256",
              "name": "uHintCount",
              "type": "uint256"
            },
            {
              "internalType": "uint256",
              "name": "uAnswerCount",
              "type": "uint256"
            },
            {
              "internalType": "bool",
              "name": "isJoined",
              "type": "bool"
            }
          ],
          "internalType": "struct SmartContract.User[]",
          "name": "",
          "type": "tuple[]"
        }
      ],
      "stateMutability": "view",
      "type": "function",
      "constant": true
    },
    {
      "inputs": [],
      "name": "joinChallenge",
      "outputs": [],
      "stateMutability": "payable",
      "type": "function",
      "payable": true
    },
    {
      "inputs": [
        {
          "internalType": "string",
          "name": "_answer",
          "type": "string"
        }
      ],
      "name": "checkAnswer",
      "outputs": [],
      "stateMutability": "payable",
      "type": "function",
      "payable": true
    },
    {
      "inputs": [
        {
          "internalType": "address",
          "name": "_userAddress",
          "type": "address"
        }
      ],
      "name": "checkParticipant",
      "outputs": [
        {
          "components": [
            {
              "internalType": "address",
              "name": "uWallet",
              "type": "address"
            },
            {
              "internalType": "uint256",
              "name": "uHintCount",
              "type": "uint256"
            },
            {
              "internalType": "uint256",
              "name": "uAnswerCount",
              "type": "uint256"
            },
            {
              "internalType": "bool",
              "name": "isJoined",
              "type": "bool"
            }
          ],
          "internalType": "struct SmartContract.User",
          "name": "",
          "type": "tuple"
        }
      ],
      "stateMutability": "view",
      "type": "function",
      "constant": true
    },
    {
      "inputs": [
        {
          "internalType": "address",
          "name": "_userAddress",
          "type": "address"
        }
      ],
      "name": "isUserJoined",
      "outputs": [
        {
          "internalType": "bool",
          "name": "",
          "type": "bool"
        }
      ],
      "stateMutability": "view",
      "type": "function",
      "constant": true
    },
    {
      "inputs": [
        {
          "internalType": "uint256",
          "name": "_amount",
          "type": "uint256"
        }
      ],
      "name": "withdraw",
      "outputs": [],
      "stateMutability": "nonpayable",
      "type": "function"
    },
    {
      "inputs": [],
      "name": "changeStartedState",
      "outputs": [],
      "stateMutability": "nonpayable",
      "type": "function"
    },
    {
      "inputs": [],
      "name": "changeWaitingState",
      "outputs": [],
      "stateMutability": "nonpayable",
      "type": "function"
    },
    {
      "inputs": [
        {
          "internalType": "uint256",
          "name": "_newCost",
          "type": "uint256"
        }
      ],
      "name": "setChallengeCost",
      "outputs": [],
      "stateMutability": "nonpayable",
      "type": "function"
    },
    {
      "inputs": [
        {
          "internalType": "uint256",
          "name": "_newCount",
          "type": "uint256"
        }
      ],
      "name": "setAnswerCount",
      "outputs": [],
      "stateMutability": "nonpayable",
      "type": "function"
    },
    {
      "inputs": [
        {
          "internalType": "uint256",
          "name": "_newCount",
          "type": "uint256"
        }
      ],
      "name": "setWaitUserCount",
      "outputs": [],
      "stateMutability": "nonpayable",
      "type": "function"
    }
  ],
  "bytecode": "0x6080604052655af3107a400060015560028055600260035534801561002357600080fd5b5061003461002f610039565b61003d565b61008d565b3390565b600080546001600160a01b038381166001600160a01b0319831681178455604051919092169283917f8be0079c531659141344cd1fd0a4f28419497f9722a3daafe3b4186f6b6457e09190a35050565b611d9f8061009c6000396000f3fe6080604052600436106101345760003560e01c80638942d0b3116100ab578063bb6f24d21161006f578063bb6f24d214610339578063e10e20ab1461034e578063ebc50c3a14610375578063eda1970b1461038a578063eff38f921461039f578063f2fde38b146103c157610134565b80638942d0b3146102bc5780638da5cb5b146102c4578063960b278a146102d9578063b52bd9c6146102f9578063b5c210ca1461030c57610134565b80634ca91618116100fd5780634ca91618146101ed5780635b5731861461020d5780636103d9151461023a578063653198a114610267578063715018a61461028757806374f8fa571461029c57610134565b8062ce8e3e146101395780631737122c146101645780631e98fd1c1461017b5780632e1a7d4d146101ab57806335ea3925146101cb575b600080fd5b34801561014557600080fd5b5061014e6103e1565b60405161015b919061194c565b60405180910390f35b34801561017057600080fd5b50610179610470565b005b34801561018757600080fd5b5061019b6101963660046117e1565b6104cc565b60405161015b9493929190611924565b3480156101b757600080fd5b506101796101c63660046117e1565b610513565b3480156101d757600080fd5b506101e0610583565b60405161015b9190611c5a565b3480156101f957600080fd5b506101796102083660046117e1565b610589565b34801561021957600080fd5b5061022d6102283660046116a0565b6105cd565b60405161015b9190611c46565b34801561024657600080fd5b5061025a6102553660046117e1565b610703565b60405161015b9190611910565b34801561027357600080fd5b506101796102823660046117e1565b61072d565b34801561029357600080fd5b50610179610771565b3480156102a857600080fd5b506101796102b7366004611709565b6107bc565b61017961094f565b3480156102d057600080fd5b5061025a610b13565b3480156102e557600080fd5b506101796102f43660046117e1565b610b22565b6101796103073660046116ce565b610b66565b34801561031857600080fd5b5061032c6103273660046116a0565b610efb565b60405161015b919061199a565b34801561034557600080fd5b506101e0610fb9565b34801561035a57600080fd5b50610363610fbf565b60405161015b969594939291906119a5565b34801561038157600080fd5b506101796110fd565b34801561039657600080fd5b506101e0611159565b3480156103ab57600080fd5b506103b461115f565b60405161015b9190611b7d565b3480156103cd57600080fd5b506101796103dc3660046116a0565b611399565b6060600c805480602002602001604051908101604052809291908181526020016000905b82821015610467576000848152602090819020604080516080810182526004860290920180546001600160a01b03168352600180820154848601526002820154928401929092526003015460ff16151560608301529083529092019101610405565b50505050905090565b610478611407565b6001600160a01b0316610489610b13565b6001600160a01b0316146104b85760405162461bcd60e51b81526004016104af90611b11565b60405180910390fd5b600b805460ff19811660ff90911615179055565b600c81815481106104dc57600080fd5b600091825260209091206004909102018054600182015460028301546003909301546001600160a01b039092169350919060ff1684565b61051b611407565b6001600160a01b031661052c610b13565b6001600160a01b0316146105525760405162461bcd60e51b81526004016104af90611b11565b604051339082156108fc029083906000818181858888f1935050505015801561057f573d6000803e3d6000fd5b5050565b60035481565b610591611407565b6001600160a01b03166105a2610b13565b6001600160a01b0316146105c85760405162461bcd60e51b81526004016104af90611b11565b600155565b6105d561145b565b6105dd61145b565b60005b600c548110156106fa57836001600160a01b0316600c828154811061061557634e487b7160e01b600052603260045260246000fd5b60009182526020909120600490910201546001600160a01b03161480156106705750600c818154811061065857634e487b7160e01b600052603260045260246000fd5b600091825260209091206003600490920201015460ff165b156106e857600c818154811061069657634e487b7160e01b600052603260045260246000fd5b600091825260209182902060408051608081018252600490930290910180546001600160a01b0316835260018101549383019390935260028301549082015260039091015460ff161515606082015291505b806106f281611d22565b9150506105e0565b5090505b919050565b600d818154811061071357600080fd5b6000918252602090912001546001600160a01b0316905081565b610735611407565b6001600160a01b0316610746610b13565b6001600160a01b03161461076c5760405162461bcd60e51b81526004016104af90611b11565b600355565b610779611407565b6001600160a01b031661078a610b13565b6001600160a01b0316146107b05760405162461bcd60e51b81526004016104af90611b11565b6107ba600061140b565b565b6107c4611407565b6001600160a01b03166107d5610b13565b6001600160a01b0316146107fb5760405162461bcd60e51b81526004016104af90611b11565b6040805160e08101825286815260208082018790529181018590526060810184905260808101839052600060a0820152600160c082015286519091600491610848918391908a019061148e565b50602082015160018201556040820151600282015560608201516108729060038084019190611512565b506080820151805161088e91600684019160209091019061148e565b5060a08201516007909101805460c09093015115156101000261ff001992151560ff199094169390931791909116919091179055600c54156109485760005b600c54811161094657600c8054806108f557634e487b7160e01b600052603160045260246000fd5b60008281526020812060046000199093019283020180546001600160a01b0319168155600181018290556002810191909155600301805460ff1916905590558061093e81611d22565b9150506108cd565b505b5050505050565b600b5460ff1680156109695750600b54610100900460ff16155b806109895750600b5460ff161580156109895750600b54610100900460ff165b6109a55760405162461bcd60e51b81526004016104af90611b46565b6109ae336105cd565b60600151156109cf5760405162461bcd60e51b81526004016104af90611a98565b6001543410156109f15760405162461bcd60e51b81526004016104af906119f1565b60408051608081018252338152600060208201818152600254938301938452600160608401818152600c805492830181559384905284517fdf6966c971051c3d54ec59162606531493a51404a002842f56009d7e5cf4a8c7600490930292830180546001600160a01b0319166001600160a01b0390921691909117905591517fdf6966c971051c3d54ec59162606531493a51404a002842f56009d7e5cf4a8c882015593517fdf6966c971051c3d54ec59162606531493a51404a002842f56009d7e5cf4a8c9850155517fdf6966c971051c3d54ec59162606531493a51404a002842f56009d7e5cf4a8ca909301805460ff1916931515939093179092556003549154909111610b1057600b805461ff001960ff199091166001171690555b50565b6000546001600160a01b031690565b610b2a611407565b6001600160a01b0316610b3b610b13565b6001600160a01b031614610b615760405162461bcd60e51b81526004016104af90611b11565b600255565b600b5460ff168015610b805750600b54610100900460ff16155b610b9c5760405162461bcd60e51b81526004016104af90611b46565b610ba5336105cd565b60600151610bc55760405162461bcd60e51b81526004016104af90611a6e565b6000610bd0336105cd565b6040015111610bf15760405162461bcd60e51b81526004016104af90611acf565b80604051602001610c029190611859565b60408051601f1981840301815290829052805160209182012091610c2991600a9101611875565b604051602081830303815290604052805190602001201415610e405760405133906000906509184e72a0009082818181858883f19350505050158015610c73573d6000803e3d6000fd5b50604080516020810191829052600090819052610c929160049161148e565b5060006005819055600681905560408051608081018252606081018381528152815160208181018452848252808301919091528251908101835292835290810191909152610ce4906007906003611512565b50604080516020810191829052600090819052610d0391600a9161148e565b50600b805461ffff1916905560005b600c548111610d8b57600c805480610d3a57634e487b7160e01b600052603160045260246000fd5b60008281526020812060046000199093019283020180546001600160a01b0319168155600181018290556002810191909155600301805460ff19169055905580610d8381611d22565b915050610d12565b50600d54600a1415610df95760005b600d54811015610df757600d805480610dc357634e487b7160e01b600052603160045260246000fd5b600082815260209020810160001990810180546001600160a01b031916905501905580610def81611d22565b915050610d9a565b505b600d80546001810182556000919091527fd7b6990105719101dabeb77144f2a3385c8033acd3af97e9423a695e81ad1eb50180546001600160a01b03191633179055610b10565b60005b600c5481101561057f57610e56336105cd565b600001516001600160a01b0316600c8281548110610e8457634e487b7160e01b600052603260045260246000fd5b60009182526020909120600490910201546001600160a01b03161415610ee957600c8181548110610ec557634e487b7160e01b600052603260045260246000fd5b600091825260208220600260049092020101805491610ee383611cd0565b91905055505b80610ef381611d22565b915050610e43565b6000805b600c54811015610fb057826001600160a01b0316600c8281548110610f3457634e487b7160e01b600052603260045260246000fd5b60009182526020909120600490910201546001600160a01b0316148015610f8f5750600c8181548110610f7757634e487b7160e01b600052603260045260246000fd5b600091825260209091206003600490920201015460ff165b15610f9e5760019150506106fe565b80610fa881611d22565b915050610eff565b50600092915050565b60025481565b600480548190610fce90611ce7565b80601f0160208091040260200160405190810160405280929190818152602001828054610ffa90611ce7565b80156110475780601f1061101c57610100808354040283529160200191611047565b820191906000526020600020905b81548152906001019060200180831161102a57829003601f168201915b50505050509080600101549080600201549080600601805461106890611ce7565b80601f016020809104026020016040519081016040528092919081815260200182805461109490611ce7565b80156110e15780601f106110b6576101008083540402835291602001916110e1565b820191906000526020600020905b8154815290600101906020018083116110c457829003601f168201915b5050506007909301549192505060ff8082169161010090041686565b611105611407565b6001600160a01b0316611116610b13565b6001600160a01b03161461113c5760405162461bcd60e51b81526004016104af90611b11565b600b805461ff001981166101009182900460ff1615909102179055565b60015481565b61116761155e565b60046040518060e001604052908160008201805461118490611ce7565b80601f01602080910402602001604051908101604052809291908181526020018280546111b090611ce7565b80156111fd5780601f106111d2576101008083540402835291602001916111fd565b820191906000526020600020905b8154815290600101906020018083116111e057829003601f168201915b50505050508152602001600182015481526020016002820154815260200160038201600380602002604051908101604052809291906000905b828210156112d957838201805461124c90611ce7565b80601f016020809104026020016040519081016040528092919081815260200182805461127890611ce7565b80156112c55780601f1061129a576101008083540402835291602001916112c5565b820191906000526020600020905b8154815290600101906020018083116112a857829003601f168201915b505050505081526020019060010190611236565b5050505081526020016006820180546112f190611ce7565b80601f016020809104026020016040519081016040528092919081815260200182805461131d90611ce7565b801561136a5780601f1061133f5761010080835404028352916020019161136a565b820191906000526020600020905b81548152906001019060200180831161134d57829003601f168201915b50505091835250506007919091015460ff80821615156020840152610100909104161515604090910152905090565b6113a1611407565b6001600160a01b03166113b2610b13565b6001600160a01b0316146113d85760405162461bcd60e51b81526004016104af90611b11565b6001600160a01b0381166113fe5760405162461bcd60e51b81526004016104af90611a28565b610b108161140b565b3390565b600080546001600160a01b038381166001600160a01b0319831681178455604051919092169283917f8be0079c531659141344cd1fd0a4f28419497f9722a3daafe3b4186f6b6457e09190a35050565b604051806080016040528060006001600160a01b0316815260200160008152602001600081526020016000151581525090565b82805461149a90611ce7565b90600052602060002090601f0160209004810192826114bc5760008555611502565b82601f106114d557805160ff1916838001178555611502565b82800160010185558215611502579182015b828111156115025782518255916020019190600101906114e7565b5061150e9291506115a0565b5090565b8260038101928215611552579160200282015b82811115611552578251805161154291849160209091019061148e565b5091602001919060010190611525565b5061150e9291506115b5565b6040518060e001604052806060815260200160008152602001600081526020016115866115d2565b815260606020820181905260006040830181905291015290565b5b8082111561150e57600081556001016115a1565b8082111561150e5760006115c982826115f9565b506001016115b5565b60405180606001604052806003905b60608152602001906001900390816115e15790505090565b50805461160590611ce7565b6000825580601f106116175750610b10565b601f016020900490600052602060002090810190610b1091906115a0565b600082601f830112611645578081fd5b813567ffffffffffffffff81111561165f5761165f611d53565b611672601f8201601f1916602001611c63565b818152846020838601011115611686578283fd5b816020850160208301379081016020019190915292915050565b6000602082840312156116b1578081fd5b81356001600160a01b03811681146116c7578182fd5b9392505050565b6000602082840312156116df578081fd5b813567ffffffffffffffff8111156116f5578182fd5b61170184828501611635565b949350505050565b600080600080600060a08688031215611720578081fd5b853567ffffffffffffffff80821115611737578283fd5b61174389838a01611635565b96506020915081880135955060408801359450606088013581811115611767578384fd5b8801601f81018a13611777578384fd5b6117816060611c63565b8082865b60038110156117ad5761179b8e83358701611635565b84529286019290860190600101611785565b5090965050505060808801359150808211156117c7578283fd5b506117d488828901611635565b9150509295509295909350565b6000602082840312156117f2578081fd5b5035919050565b15159052565b60008151808452611817816020860160208601611ca0565b601f01601f19169290920160200192915050565b80516001600160a01b0316825260208082015190830152604080820151908301526060908101511515910152565b6000825161186b818460208701611ca0565b9190910192915050565b815460009081906002810460018083168061189157607f831692505b60208084108214156118b157634e487b7160e01b87526022600452602487fd5b8180156118c557600181146118d657611902565b60ff19861689528489019650611902565b6118df8a611c94565b885b868110156118fa5781548b8201529085019083016118e1565b505084890196505b509498975050505050505050565b6001600160a01b0391909116815260200190565b6001600160a01b03949094168452602084019290925260408301521515606082015260800190565b6020808252825182820181905260009190848201906040850190845b8181101561198e5761197b83855161182b565b9284019260809290920191600101611968565b50909695505050505050565b901515815260200190565b600060c082526119b860c08301896117ff565b87602084015286604084015282810360608401526119d681876117ff565b9415156080840152505090151560a090910152949350505050565b6020808252601b908201527f4d415449432076616c75652073656e74206e6f742076616c6964210000000000604082015260600190565b60208082526026908201527f4f776e61626c653a206e6577206f776e657220697320746865207a65726f206160408201526564647265737360d01b606082015260800190565b60208082526010908201526f55736572206e6f74206a6f696e65642160801b604082015260600190565b60208082526017908201527f5573657220697320616c7265616479206a6f696e656421000000000000000000604082015260600190565b60208082526022908201527f5573657220686173206e6f7420616e7377657220636f756e742c20656e6f7567604082015261682160f01b606082015260800190565b6020808252818101527f4f776e61626c653a2063616c6c6572206973206e6f7420746865206f776e6572604082015260600190565b6020808252601a908201527f4368616c6c656e6765206e6f7420737461727465642079657421000000000000604082015260600190565b60006020808352835160e082850152611b9a6101008501826117ff565b9050818501516040850152604085015160608501526060850151601f19808684030160808701528283905060608401865b6003811015611bf6578582038352611be48286516117ff565b94870194928701929150600101611bcb565b5060808901519550828882030160a0890152611c1281876117ff565b9550505050505060a0840151611c2b60c08501826117f9565b5060c0840151611c3e60e08501826117f9565b509392505050565b60808101611c54828461182b565b92915050565b90815260200190565b604051601f8201601f1916810167ffffffffffffffff81118282101715611c8c57611c8c611d53565b604052919050565b60009081526020902090565b60005b83811015611cbb578181015183820152602001611ca3565b83811115611cca576000848401525b50505050565b600081611cdf57611cdf611d3d565b506000190190565b600281046001821680611cfb57607f821691505b60208210811415611d1c57634e487b7160e01b600052602260045260246000fd5b50919050565b6000600019821415611d3657611d36611d3d565b5060010190565b634e487b7160e01b600052601160045260246000fd5b634e487b7160e01b600052604160045260246000fdfea2646970667358221220d38a8c1180301a403ad0051f828a0638cea5d5cad1ed47a7773144aec53660b864736f6c63430008010033",
  "immutableReferences": {},
  "source": "// SPDX-License-Identifier: GPL-3.0\r\n\r\npragma solidity ^0.8.0;\r\n\r\nimport \"@openzeppelin/contracts/access/Ownable.sol\";\r\n\r\ncontract SmartContract is Ownable{\r\n\r\n    struct Question{\r\n        string qDesc;\r\n        uint qPrize;//must be wei\r\n        uint qDate;\r\n        string[3] qHints;\r\n        string qAnswer;\r\n        bool qState;\r\n        bool qWait;\r\n    }\r\n\r\n    struct User{\r\n        address uWallet;\r\n        uint uHintCount;//0->3\r\n        uint uAnswerCount;//2->0\r\n        bool isJoined;\r\n    }\r\n\r\n    uint public challengeCost = 0.0001 ether;\r\n    uint public challengeAnswerCount = 2;\r\n    uint public waitUserCount = 2;\r\n    \r\n    Question public newQuestion;\r\n    User[] public Users;\r\n    //mapping(address => User) ParticipantMap;\r\n    address[] public Winners;\r\n\r\n    //Creates Question\r\n    function createQuestion(\r\n        string memory _desc, \r\n        uint _prize,\r\n        uint _date, \r\n        string[3] memory _hints,\r\n        string memory _answer) public onlyOwner()\r\n    {\r\n        newQuestion = Question(_desc,_prize,_date,_hints,_answer,false,true);\r\n\r\n        //If users exist, clean up\r\n        if(Users.length > 0){\r\n            for(uint i=0;i<=Users.length;i++){\r\n                Users.pop();\r\n            }\r\n        }\r\n    }\r\n\r\n    // //Gets Question (for website)\r\n    // function getQuestion() public view returns(string memory, uint, uint, string[3] memory, bool, bool)\r\n    // {\r\n    //     return (newQuestion.qDesc, newQuestion.qPrize, newQuestion.qDate, \r\n    //         newQuestion.qHints, newQuestion.qState, newQuestion.qWait);\r\n    // }\r\n\r\n    function getQuestion() public view returns(Question memory)\r\n    {\r\n        return newQuestion;\r\n    }\r\n\r\n    function getUsers() public view returns(User[] memory)\r\n    {\r\n        return Users;\r\n    }\r\n\r\n    //Joins Challenge\r\n    function joinChallenge() public payable\r\n    {\r\n        //Is challenge started or waiting participant?\r\n        require((newQuestion.qState && !newQuestion.qWait) || (!newQuestion.qState && newQuestion.qWait), \"Challenge not started yet!\");\r\n        //Is Participant exist?\r\n        require(!checkParticipant(msg.sender).isJoined, \"User is already joined!\");\r\n        require(msg.value >= challengeCost, \"MATIC value sent not valid!\");\r\n\r\n        User memory newUser = User(msg.sender, 0, challengeAnswerCount, true);\r\n        Users.push(newUser);\r\n\r\n        if(Users.length >= waitUserCount){\r\n            newQuestion.qState = true;\r\n            newQuestion.qWait = false;\r\n        }\r\n    }\r\n    \r\n    //Checks Answer\r\n    function checkAnswer(string memory _answer) public payable\r\n    {   \r\n        //Is challenge started or waiting participant?\r\n        require(newQuestion.qState && !newQuestion.qWait, \"Challenge not started yet!\");\r\n        //Is Participant exist?\r\n        require(checkParticipant(msg.sender).isJoined, \"User not joined!\");\r\n        require(checkParticipant(msg.sender).uAnswerCount > 0, \"User has not answer count, enough!\");\r\n\r\n\r\n        //If answer true, stop the challenge and send the coin to winner\r\n        if(keccak256(abi.encodePacked(newQuestion.qAnswer)) == keccak256(abi.encodePacked(_answer)))\r\n        {\r\n            //Sending prize to winner\r\n            payable(msg.sender).transfer(10000000000000);//0,00001\r\n\r\n            //Challenge is ending\r\n            newQuestion.qDesc = \"\";\r\n            newQuestion.qPrize = 0;\r\n            newQuestion.qDate = 0;\r\n            newQuestion. qHints = [\"\",\"\",\"\"];\r\n            newQuestion.qAnswer = \"\";\r\n            newQuestion.qState = false;\r\n            newQuestion.qWait = false;\r\n\r\n            //Participants cleaning\r\n            for(uint i=0;i<=Users.length;i++){\r\n                Users.pop();\r\n            }\r\n\r\n            //Only the last 10 winner storing\r\n            if(Winners.length == 10){\r\n                for(uint i=0;i<Winners.length;i++)\r\n                    Winners.pop();\r\n            }\r\n            Winners.push(msg.sender);   \r\n        }\r\n        else{\r\n            //Decreasing msg.sender answer count\r\n            for(uint i=0;i<Users.length;i++){\r\n                if(Users[i].uWallet == checkParticipant(msg.sender).uWallet)\r\n                    Users[i].uAnswerCount--;\r\n            }\r\n        }\r\n    }\r\n\r\n    function checkParticipant(address _userAddress) public view returns(User memory)\r\n    {\r\n        User memory user;\r\n        for(uint i=0; i<Users.length; i++)\r\n        {\r\n            //If user exist and joined\r\n            if(Users[i].uWallet == _userAddress && Users[i].isJoined)\r\n                user = Users[i];\r\n        }\r\n        return user;\r\n    }\r\n\r\n    function isUserJoined(address _userAddress) public view returns(bool){\r\n        for(uint i=0; i<Users.length; i++)\r\n        {\r\n            //If user exist and joined\r\n            if(Users[i].uWallet == _userAddress && Users[i].isJoined)\r\n                return true;\r\n        }\r\n        return false;\r\n    }\r\n    \r\n    //Parameter type is must be wei\r\n    function withdraw(uint _amount) public onlyOwner() {\r\n        payable(msg.sender).transfer(_amount);\r\n    }\r\n\r\n    /*Set Functions*/\r\n    function changeStartedState() public onlyOwner()\r\n    {\r\n        newQuestion.qState = !newQuestion.qState;\r\n    }\r\n\r\n    function changeWaitingState() public onlyOwner()\r\n    {\r\n        newQuestion.qWait = !newQuestion.qWait;\r\n    }\r\n\r\n    function setChallengeCost(uint _newCost) public onlyOwner(){\r\n        challengeCost = _newCost;\r\n    }\r\n\r\n    function setAnswerCount(uint _newCount) public onlyOwner(){\r\n        challengeAnswerCount = _newCount;\r\n    }\r\n\r\n    function setWaitUserCount(uint _newCount) public onlyOwner(){\r\n        waitUserCount = _newCount;\r\n    }\r\n    /*Set Functions END*/\r\n}",
  "sourcePath": "C:\\Users\\DELL\\Desktop\\dapp-test-app\\contracts\\SmartContract.sol",
  "compiler": {
    "name": "solc",
    "version": "0.8.1+commit.df193b15.Emscripten.clang"
  },
  "schemaVersion": "3.4.5",
  "updatedAt": "2022-04-13T11:57:34.401Z",
  "networkType": "ethereum",
  "devdoc": {
    "kind": "dev",
    "methods": {
      "owner()": {
        "details": "Returns the address of the current owner."
      },
      "renounceOwnership()": {
        "details": "Leaves the contract without owner. It will not be possible to call `onlyOwner` functions anymore. Can only be called by the current owner. NOTE: Renouncing ownership will leave the contract without an owner, thereby removing any functionality that is only available to the owner."
      },
      "transferOwnership(address)": {
        "details": "Transfers ownership of the contract to a new account (`newOwner`). Can only be called by the current owner."
      }
    },
    "version": 1
  },
  "userdoc": {
    "kind": "user",
    "methods": {},
    "version": 1
  }
}